{"contracts/WeirollWallet.sol":{"WeirollWallet":{"abi":[{"inputs":[{"internalType":"uint256","name":"command_index","type":"uint256"},{"internalType":"address","name":"target","type":"address"},{"internalType":"string","name":"message","type":"string"}],"name":"ExecutionFailed","type":"error"},{"inputs":[],"name":"NotOwner","type":"error"},{"inputs":[],"name":"NotRecipeMarketHub","type":"error"},{"inputs":[],"name":"OfferUnfilled","type":"error"},{"inputs":[],"name":"RawExecutionFailed","type":"error"},{"inputs":[],"name":"WalletLocked","type":"error"},{"inputs":[],"name":"WalletNotForfeitable","type":"error"},{"anonymous":false,"inputs":[],"name":"WeirollWalletExecutedManually","type":"event"},{"stateMutability":"payable","type":"fallback"},{"inputs":[],"name":"amount","outputs":[{"internalType":"uint256","name":"","type":"uint256"}],"stateMutability":"pure","type":"function"},{"inputs":[{"internalType":"address","name":"to","type":"address"},{"internalType":"uint256","name":"value","type":"uint256"},{"internalType":"bytes","name":"data","type":"bytes"}],"name":"execute","outputs":[{"internalType":"bytes","name":"","type":"bytes"}],"stateMutability":"payable","type":"function"},{"inputs":[{"internalType":"bytes32[]","name":"commands","type":"bytes32[]"},{"internalType":"bytes[]","name":"state","type":"bytes[]"}],"name":"executeWeiroll","outputs":[{"internalType":"bytes[]","name":"","type":"bytes[]"}],"stateMutability":"payable","type":"function"},{"inputs":[],"name":"executed","outputs":[{"internalType":"bool","name":"","type":"bool"}],"stateMutability":"view","type":"function"},{"inputs":[],"name":"forfeit","outputs":[],"stateMutability":"nonpayable","type":"function"},{"inputs":[],"name":"forfeited","outputs":[{"internalType":"bool","name":"","type":"bool"}],"stateMutability":"view","type":"function"},{"inputs":[],"name":"isForfeitable","outputs":[{"internalType":"bool","name":"","type":"bool"}],"stateMutability":"pure","type":"function"},{"inputs":[{"internalType":"bytes32","name":"digest","type":"bytes32"},{"internalType":"bytes","name":"signature","type":"bytes"}],"name":"isValidSignature","outputs":[{"internalType":"bytes4","name":"","type":"bytes4"}],"stateMutability":"view","type":"function"},{"inputs":[],"name":"lockedUntil","outputs":[{"internalType":"uint256","name":"","type":"uint256"}],"stateMutability":"pure","type":"function"},{"inputs":[{"internalType":"bytes32[]","name":"commands","type":"bytes32[]"},{"internalType":"bytes[]","name":"state","type":"bytes[]"}],"name":"manualExecuteWeiroll","outputs":[{"internalType":"bytes[]","name":"","type":"bytes[]"}],"stateMutability":"payable","type":"function"},{"inputs":[],"name":"marketHash","outputs":[{"internalType":"bytes32","name":"","type":"bytes32"}],"stateMutability":"pure","type":"function"},{"inputs":[],"name":"owner","outputs":[{"internalType":"address","name":"","type":"address"}],"stateMutability":"pure","type":"function"},{"inputs":[],"name":"recipeMarketHub","outputs":[{"internalType":"address","name":"","type":"address"}],"stateMutability":"pure","type":"function"},{"stateMutability":"payable","type":"receive"}],"evm":{"bytecode":{"linkReferences":{},"object":"60a0604052348015600e575f5ffd5b503073ffffffffffffffffffffffffffffffffffffffff1660808173ffffffffffffffffffffffffffffffffffffffff16815250506080516122a06100585f395f50506122a05ff3fe6080604052600436106100c5575f3560e01c806367a348441161007e578063aa8c217c11610058578063aa8c217c14610260578063b61d27f61461028a578063ce0617ec146102ba578063f3d86e4a146102e4576100c6565b806367a34844146101e25780636d710c721461020c5780638da5cb5b14610236576100c6565b80630e4ab719146100c85780631626ba7e146100f857806324b8b1e6146101345780632e1cc2f614610164578063315745461461018e57806331a38c89146101b8576100c6565b5b005b6100e260048036038101906100dd91906114af565b6102fa565b6040516100ef9190611658565b60405180910390f35b348015610103575f5ffd5b5061011e60048036038101906101199190611700565b6103a2565b60405161012b9190611797565b60405180910390f35b61014e600480360381019061014991906114af565b610476565b60405161015b9190611658565b60405180910390f35b34801561016f575f5ffd5b506101786105ce565b60405161018591906117ef565b60405180910390f35b348015610199575f5ffd5b506101a26105de565b6040516101af9190611817565b60405180910390f35b3480156101c3575f5ffd5b506101cc6105f0565b6040516101d9919061184a565b60405180910390f35b3480156101ed575f5ffd5b506101f6610601565b604051610203919061184a565b60405180910390f35b348015610217575f5ffd5b50610220610613565b60405161022d919061184a565b60405180910390f35b348015610241575f5ffd5b5061024a610629565b60405161025791906117ef565b60405180910390f35b34801561026b575f5ffd5b50610274610638565b604051610281919061187b565b60405180910390f35b6102a4600480360381019061029f9190611a10565b610648565b6040516102b19190611ac4565b60405180910390f35b3480156102c5575f5ffd5b506102ce61082e565b6040516102db919061187b565b60405180910390f35b3480156102ef575f5ffd5b506102f861083e565b005b60606103046105ce565b73ffffffffffffffffffffffffffffffffffffffff163373ffffffffffffffffffffffffffffffffffffffff1614610368576040517fb271766700000000000000000000000000000000000000000000000000000000815260040160405180910390fd5b60015f5f6101000a81548160ff02191690831515021790555061039885858585906103939190611b95565b610918565b9050949350505050565b5f5f8446306040516020016103b993929190611ba9565b6040516020818303038152906040528051906020012090506103d9610629565b73ffffffffffffffffffffffffffffffffffffffff1661043c8286868080601f0160208091040260200160405190810160405280939291908181526020018383808284375f81840152601f19601f82011690508083019250505050505050610d76565b73ffffffffffffffffffffffffffffffffffffffff160361046757631626ba7e60e01b91505061046f565b5f60e01b9150505b9392505050565b6060610480610629565b73ffffffffffffffffffffffffffffffffffffffff163373ffffffffffffffffffffffffffffffffffffffff16146104e4576040517f30cd747100000000000000000000000000000000000000000000000000000000815260040160405180910390fd5b5f60019054906101000a900460ff1615801561050657504261050461082e565b115b1561053d576040517fd550ed2400000000000000000000000000000000000000000000000000000000815260040160405180910390fd5b5f5f9054906101000a900460ff16610581576040517f05fee1e200000000000000000000000000000000000000000000000000000000815260040160405180910390fd5b7f19f0b89b5c0f05620d67b659885ae073c29fa80357783988104f4daa4ecfd51160405160405180910390a16105c485858585906105bf9190611b95565b610918565b9050949350505050565b5f6105d96014610dfa565b905090565b5f6105e96069610e15565b5f1b905090565b5f5f9054906101000a900460ff1681565b5f60019054906101000a900460ff1681565b5f5f61061f6068610e2d565b60ff161415905090565b5f6106335f610dfa565b905090565b5f6106436028610e15565b905090565b6060610652610629565b73ffffffffffffffffffffffffffffffffffffffff163373ffffffffffffffffffffffffffffffffffffffff16146106b6576040517f30cd747100000000000000000000000000000000000000000000000000000000815260040160405180910390fd5b5f60019054906101000a900460ff161580156106d85750426106d661082e565b115b1561070f576040517fd550ed2400000000000000000000000000000000000000000000000000000000815260040160405180910390fd5b5f5f9054906101000a900460ff16610753576040517f05fee1e200000000000000000000000000000000000000000000000000000000815260040160405180910390fd5b5f5f8573ffffffffffffffffffffffffffffffffffffffff16858560405161077b9190611c18565b5f6040518083038185875af1925050503d805f81146107b5576040519150601f19603f3d011682016040523d82523d5f602084013e6107ba565b606091505b5091509150816107f6576040517f2cb48aa600000000000000000000000000000000000000000000000000000000815260040160405180910390fd5b7f19f0b89b5c0f05620d67b659885ae073c29fa80357783988104f4daa4ecfd51160405160405180910390a180925050509392505050565b5f6108396048610e15565b905090565b6108466105ce565b73ffffffffffffffffffffffffffffffffffffffff163373ffffffffffffffffffffffffffffffffffffffff16146108aa576040517fb271766700000000000000000000000000000000000000000000000000000000815260040160405180910390fd5b6108b2610613565b15806108c557506108c161082e565b4210155b156108fc576040517fb44bb11000000000000000000000000000000000000000000000000000000000815260040160405180910390fd5b60015f60016101000a81548160ff021916908315150217905550565b60605f5f5f5f60605f8989905090505f5b81811015610d65578a8a8281811061094457610943611c2e565b5b905060200201359650602087901b60f81c60ff1695505f6040871614610991578a8a828061097190611c88565b935081811061098357610982611c2e565b5b9050602002013594506109b9565b79ffffffffffffffffffffffffffffffffffffffffffffffffffff602888901b5f1c175f1b94505b5f6003871603610a4957865f1c73ffffffffffffffffffffffffffffffffffffffff166109f188878c610e489092919063ffffffff16565b6040516109fe9190611c18565b5f60405180830381855af49150503d805f8114610a36576040519150601f19603f3d011682016040523d82523d5f602084013e610a3b565b606091505b508094508195505050610c75565b60016003871603610adb57865f1c73ffffffffffffffffffffffffffffffffffffffff16610a8288878c610e489092919063ffffffff16565b604051610a8f9190611c18565b5f604051808303815f865af19150503d805f8114610ac8576040519150601f19603f3d011682016040523d82523d5f602084013e610acd565b606091505b508094508195505050610c74565b60026003871603610b6c57865f1c73ffffffffffffffffffffffffffffffffffffffff16610b1488878c610e489092919063ffffffff16565b604051610b219190611c18565b5f60405180830381855afa9150503d805f8114610b59576040519150601f19603f3d011682016040523d82523d5f602084013e610b5e565b606091505b508094508195505050610c73565b600380871603610c37575f5f8a8760f81c60ff1681518110610b9157610b90611c2e565b5b60200260200101519050602081018252885f1c73ffffffffffffffffffffffffffffffffffffffff1682610bdb8b60ff60088c901b5f1c175f1b8f610e489092919063ffffffff16565b604051610be89190611c18565b5f6040518083038185875af1925050503d805f8114610c22576040519150601f19603f3d011682016040523d82523d5f602084013e610c27565b606091505b5080965081975050505050610c72565b6040517f08c379a0000000000000000000000000000000000000000000000000000000008152600401610c6990611d29565b60405180910390fd5b5b5b5b83610d11575f83511115610c8a576044830192505b5f875f1c5f855111610cd1576040518060400160405280600781526020017f556e6b6e6f776e00000000000000000000000000000000000000000000000000815250610cd3565b845b6040517fef3dcb2f000000000000000000000000000000000000000000000000000000008152600401610d0893929190611dcb565b60405180910390fd5b5f6080871614610d3957610d34605888901b848b6111c29092919063ffffffff16565b610d55565b610d52605888901b848b6112749092919063ffffffff16565b98505b610d5e8161139e565b9050610929565b508796505050505050509392505050565b5f604051600115610df357825160408114610d995760418114610db85750610df3565b6040840151601b8160ff1c016020528060011b60011c60605250610dcb565b60608401515f1a60205260408401516060525b50835f5260208301516040526020604060805f60015afa505f6060523d606018519150806040525b5092915050565b5f5f610e046113ad565b90508281013560601c915050919050565b5f5f610e1f6113ad565b905082810135915050919050565b5f5f610e376113ad565b90508281013560f81c915050919050565b60605f5f60605f5f5b6020811015610ff757868160208110610e6d57610e6c611c2e565b5b1a60f81b60f81c60ff16915060ff820315610ff7575f6080831614610f705760fe8203610ed9575f835103610ebf5788604051602001610ead9190611658565b60405160208183030381529060405292505b825185610ecc9190611e07565b9450602084019350610f6b565b5f89607f841681518110610ef057610eef611c2e565b5b60200260200101515190505f602082610f099190611e67565b14610f49576040517f08c379a0000000000000000000000000000000000000000000000000000000008152600401610f4090611f07565b60405180910390fd5b602081610f569190611e07565b86610f619190611e07565b9550602085019450505b610fe7565b602089607f841681518110610f8857610f87611c2e565b5b60200260200101515114610fd1576040517f08c379a0000000000000000000000000000000000000000000000000000000008152600401610fc890611f95565b60405180910390fd5b602085610fde9190611e07565b94506020840193505b610ff0816113bf565b9050610e51565b506004846110059190611e07565b67ffffffffffffffff81111561101e5761101d6118ec565b5b6040519080825280601f01601f1916602001820160405280156110505781602001600182028036833780820191505090505b5094508660208601525f93505f5b60208110156111b65786816020811061107a57611079611c2e565b5b1a60f81b60f81c60ff16915060ff8203156111b6575f60808316146111715760fe82036110f65783856024880101526110d0836020886004886110bd9190611e07565b602088516110cb9190611fb3565b6113ce565b602083516110de9190611fb3565b846110e99190611e07565b935060208501945061116c565b5f89607f84168151811061110d5761110c611c2e565b5b602002602001015151905084866024890101526111568a607f85168151811061113957611138611c2e565b5b60200260200101515f896004896111509190611e07565b856113ce565b80856111629190611e07565b9450602086019550505b6111a6565b5f89607f84168151811061118857611187611c2e565b5b60200260200101519050602081015186602489010152602086019550505b6111af816113bf565b905061105e565b50505050509392505050565b5f8260f81c60ff16905060ff81036111da575061126f565b5f602083516111e99190611e07565b67ffffffffffffffff811115611202576112016118ec565b5b6040519080825280601f01601f1916602001820160405280156112345781602001600182028036833780820191505090505b5085838151811061124857611247611c2e565b5b602002602001018190529050611263835f83602087516113ce565b82518060208301525050505b505050565b60605f8360f81c60ff16905060ff81036112915784915050611397565b5f608082161461132b5760fe81036112be57828060200190518101906112b79190612107565b9450611326565b5f6020840151905060208114611309576040517f08c379a0000000000000000000000000000000000000000000000000000000008152600401611300906121be565b60405180910390fd5b60208451036020850152602084016020607f841602602088010152505b611392565b602083511461136f576040517f08c379a00000000000000000000000000000000000000000000000000000000081526004016113669061224c565b60405180910390fd5b8285607f83168151811061138657611385611c2e565b5b60200260200101819052505b849150505b9392505050565b5f816001019150819050919050565b5f60028036033560f01c013603905090565b5f816001019150819050919050565b808260208501018286602089010160045afa505050505050565b5f604051905090565b5f5ffd5b5f5ffd5b5f5ffd5b5f5ffd5b5f5ffd5b5f5f83601f84011261141a576114196113f9565b5b8235905067ffffffffffffffff811115611437576114366113fd565b5b60208301915083602082028301111561145357611452611401565b5b9250929050565b5f5f83601f84011261146f5761146e6113f9565b5b8235905067ffffffffffffffff81111561148c5761148b6113fd565b5b6020830191508360208202830111156114a8576114a7611401565b5b9250929050565b5f5f5f5f604085870312156114c7576114c66113f1565b5b5f85013567ffffffffffffffff8111156114e4576114e36113f5565b5b6114f087828801611405565b9450945050602085013567ffffffffffffffff811115611513576115126113f5565b5b61151f8782880161145a565b925092505092959194509250565b5f81519050919050565b5f82825260208201905092915050565b5f819050602082019050919050565b5f81519050919050565b5f82825260208201905092915050565b8281835e5f83830152505050565b5f601f19601f8301169050919050565b5f61159882611556565b6115a28185611560565b93506115b2818560208601611570565b6115bb8161157e565b840191505092915050565b5f6115d1838361158e565b905092915050565b5f602082019050919050565b5f6115ef8261152d565b6115f98185611537565b93508360208202850161160b85611547565b805f5b85811015611646578484038952815161162785826115c6565b9450611632836115d9565b925060208a0199505060018101905061160e565b50829750879550505050505092915050565b5f6020820190508181035f83015261167081846115e5565b905092915050565b5f819050919050565b61168a81611678565b8114611694575f5ffd5b50565b5f813590506116a581611681565b92915050565b5f5f83601f8401126116c0576116bf6113f9565b5b8235905067ffffffffffffffff8111156116dd576116dc6113fd565b5b6020830191508360018202830111156116f9576116f8611401565b5b9250929050565b5f5f5f60408486031215611717576117166113f1565b5b5f61172486828701611697565b935050602084013567ffffffffffffffff811115611745576117446113f5565b5b611751868287016116ab565b92509250509250925092565b5f7fffffffff0000000000000000000000000000000000000000000000000000000082169050919050565b6117918161175d565b82525050565b5f6020820190506117aa5f830184611788565b92915050565b5f73ffffffffffffffffffffffffffffffffffffffff82169050919050565b5f6117d9826117b0565b9050919050565b6117e9816117cf565b82525050565b5f6020820190506118025f8301846117e0565b92915050565b61181181611678565b82525050565b5f60208201905061182a5f830184611808565b92915050565b5f8115159050919050565b61184481611830565b82525050565b5f60208201905061185d5f83018461183b565b92915050565b5f819050919050565b61187581611863565b82525050565b5f60208201905061188e5f83018461186c565b92915050565b61189d816117cf565b81146118a7575f5ffd5b50565b5f813590506118b881611894565b92915050565b6118c781611863565b81146118d1575f5ffd5b50565b5f813590506118e2816118be565b92915050565b5f5ffd5b7f4e487b71000000000000000000000000000000000000000000000000000000005f52604160045260245ffd5b6119228261157e565b810181811067ffffffffffffffff82111715611941576119406118ec565b5b80604052505050565b5f6119536113e8565b905061195f8282611919565b919050565b5f67ffffffffffffffff82111561197e5761197d6118ec565b5b6119878261157e565b9050602081019050919050565b828183375f83830152505050565b5f6119b46119af84611964565b61194a565b9050828152602081018484840111156119d0576119cf6118e8565b5b6119db848285611994565b509392505050565b5f82601f8301126119f7576119f66113f9565b5b8135611a078482602086016119a2565b91505092915050565b5f5f5f60608486031215611a2757611a266113f1565b5b5f611a34868287016118aa565b9350506020611a45868287016118d4565b925050604084013567ffffffffffffffff811115611a6657611a656113f5565b5b611a72868287016119e3565b9150509250925092565b5f82825260208201905092915050565b5f611a9682611556565b611aa08185611a7c565b9350611ab0818560208601611570565b611ab98161157e565b840191505092915050565b5f6020820190508181035f830152611adc8184611a8c565b905092915050565b5f67ffffffffffffffff821115611afe57611afd6118ec565b5b602082029050602081019050919050565b5f611b21611b1c84611ae4565b61194a565b90508083825260208201905060208402830185811115611b4457611b43611401565b5b835b81811015611b8b57803567ffffffffffffffff811115611b6957611b686113f9565b5b808601611b7689826119e3565b85526020850194505050602081019050611b46565b5050509392505050565b5f611ba1368484611b0f565b905092915050565b5f606082019050611bbc5f830186611808565b611bc9602083018561186c565b611bd660408301846117e0565b949350505050565b5f81905092915050565b5f611bf282611556565b611bfc8185611bde565b9350611c0c818560208601611570565b80840191505092915050565b5f611c238284611be8565b915081905092915050565b7f4e487b71000000000000000000000000000000000000000000000000000000005f52603260045260245ffd5b7f4e487b71000000000000000000000000000000000000000000000000000000005f52601160045260245ffd5b5f611c9282611863565b91507fffffffffffffffffffffffffffffffffffffffffffffffffffffffffffffffff8203611cc457611cc3611c5b565b5b600182019050919050565b5f82825260208201905092915050565b7f496e76616c69642063616c6c74797065000000000000000000000000000000005f82015250565b5f611d13601083611ccf565b9150611d1e82611cdf565b602082019050919050565b5f6020820190508181035f830152611d4081611d07565b9050919050565b5f819050919050565b5f819050919050565b5f611d73611d6e611d6984611d47565b611d50565b611863565b9050919050565b611d8381611d59565b82525050565b5f81519050919050565b5f611d9d82611d89565b611da78185611ccf565b9350611db7818560208601611570565b611dc08161157e565b840191505092915050565b5f606082019050611dde5f830186611d7a565b611deb60208301856117e0565b8181036040830152611dfd8184611d93565b9050949350505050565b5f611e1182611863565b9150611e1c83611863565b9250828201905080821115611e3457611e33611c5b565b5b92915050565b7f4e487b71000000000000000000000000000000000000000000000000000000005f52601260045260245ffd5b5f611e7182611863565b9150611e7c83611863565b925082611e8c57611e8b611e3a565b5b828206905092915050565b7f44796e616d6963207374617465207661726961626c6573206d757374206265205f8201527f61206d756c7469706c65206f6620333220627974657300000000000000000000602082015250565b5f611ef1603683611ccf565b9150611efc82611e97565b604082019050919050565b5f6020820190508181035f830152611f1e81611ee5565b9050919050565b7f537461746963207374617465207661726961626c6573206d75737420626520335f8201527f3220627974657300000000000000000000000000000000000000000000000000602082015250565b5f611f7f602783611ccf565b9150611f8a82611f25565b604082019050919050565b5f6020820190508181035f830152611fac81611f73565b9050919050565b5f611fbd82611863565b9150611fc883611863565b9250828203905081811115611fe057611fdf611c5b565b5b92915050565b5f611ff8611ff384611964565b61194a565b905082815260208101848484011115612014576120136118e8565b5b61201f848285611570565b509392505050565b5f82601f83011261203b5761203a6113f9565b5b815161204b848260208601611fe6565b91505092915050565b5f61206661206184611ae4565b61194a565b9050808382526020820190506020840283018581111561208957612088611401565b5b835b818110156120d057805167ffffffffffffffff8111156120ae576120ad6113f9565b5b8086016120bb8982612027565b8552602085019450505060208101905061208b565b5050509392505050565b5f82601f8301126120ee576120ed6113f9565b5b81516120fe848260208601612054565b91505092915050565b5f6020828403121561211c5761211b6113f1565b5b5f82015167ffffffffffffffff811115612139576121386113f5565b5b612145848285016120da565b91505092915050565b7f4f6e6c79206f6e652072657475726e2076616c7565207065726d6974746564205f8201527f287661726961626c652900000000000000000000000000000000000000000000602082015250565b5f6121a8602a83611ccf565b91506121b38261214e565b604082019050919050565b5f6020820190508181035f8301526121d58161219c565b9050919050565b7f4f6e6c79206f6e652072657475726e2076616c7565207065726d6974746564205f8201527f2873746174696329000000000000000000000000000000000000000000000000602082015250565b5f612236602883611ccf565b9150612241826121dc565b604082019050919050565b5f6020820190508181035f8301526122638161222a565b905091905056fea26469706673582212206842992d9e2490826c3c5df09da56dd9b33997bd8747fb4cefbff9bce09596bf64736f6c634300081c0033","opcodes":"PUSH1 0xA0 PUSH1 0x40 MSTORE CALLVALUE DUP1 ISZERO PUSH1 0xE JUMPI PUSH0 PUSH0 REVERT JUMPDEST POP ADDRESS PUSH20 0xFFFFFFFFFFFFFFFFFFFFFFFFFFFFFFFFFFFFFFFF AND PUSH1 0x80 DUP2 PUSH20 0xFFFFFFFFFFFFFFFFFFFFFFFFFFFFFFFFFFFFFFFF AND DUP2 MSTORE POP POP PUSH1 0x80 MLOAD PUSH2 0x22A0 PUSH2 0x58 PUSH0 CODECOPY PUSH0 POP POP PUSH2 0x22A0 PUSH0 RETURN INVALID PUSH1 0x80 PUSH1 0x40 MSTORE PUSH1 0x4 CALLDATASIZE LT PUSH2 0xC5 JUMPI PUSH0 CALLDATALOAD PUSH1 0xE0 SHR DUP1 PUSH4 0x67A34844 GT PUSH2 0x7E JUMPI DUP1 PUSH4 0xAA8C217C GT PUSH2 0x58 JUMPI DUP1 PUSH4 0xAA8C217C EQ PUSH2 0x260 JUMPI DUP1 PUSH4 0xB61D27F6 EQ PUSH2 0x28A JUMPI DUP1 PUSH4 0xCE0617EC EQ PUSH2 0x2BA JUMPI DUP1 PUSH4 0xF3D86E4A EQ PUSH2 0x2E4 JUMPI PUSH2 0xC6 JUMP JUMPDEST DUP1 PUSH4 0x67A34844 EQ PUSH2 0x1E2 JUMPI DUP1 PUSH4 0x6D710C72 EQ PUSH2 0x20C JUMPI DUP1 PUSH4 0x8DA5CB5B EQ PUSH2 0x236 JUMPI PUSH2 0xC6 JUMP JUMPDEST DUP1 PUSH4 0xE4AB719 EQ PUSH2 0xC8 JUMPI DUP1 PUSH4 0x1626BA7E EQ PUSH2 0xF8 JUMPI DUP1 PUSH4 0x24B8B1E6 EQ PUSH2 0x134 JUMPI DUP1 PUSH4 0x2E1CC2F6 EQ PUSH2 0x164 JUMPI DUP1 PUSH4 0x31574546 EQ PUSH2 0x18E JUMPI DUP1 PUSH4 0x31A38C89 EQ PUSH2 0x1B8 JUMPI PUSH2 0xC6 JUMP JUMPDEST JUMPDEST STOP JUMPDEST PUSH2 0xE2 PUSH1 0x4 DUP1 CALLDATASIZE SUB DUP2 ADD SWAP1 PUSH2 0xDD SWAP2 SWAP1 PUSH2 0x14AF JUMP JUMPDEST PUSH2 0x2FA JUMP JUMPDEST PUSH1 0x40 MLOAD PUSH2 0xEF SWAP2 SWAP1 PUSH2 0x1658 JUMP JUMPDEST PUSH1 0x40 MLOAD DUP1 SWAP2 SUB SWAP1 RETURN JUMPDEST CALLVALUE DUP1 ISZERO PUSH2 0x103 JUMPI PUSH0 PUSH0 REVERT JUMPDEST POP PUSH2 0x11E PUSH1 0x4 DUP1 CALLDATASIZE SUB DUP2 ADD SWAP1 PUSH2 0x119 SWAP2 SWAP1 PUSH2 0x1700 JUMP JUMPDEST PUSH2 0x3A2 JUMP JUMPDEST PUSH1 0x40 MLOAD PUSH2 0x12B SWAP2 SWAP1 PUSH2 0x1797 JUMP JUMPDEST PUSH1 0x40 MLOAD DUP1 SWAP2 SUB SWAP1 RETURN JUMPDEST PUSH2 0x14E PUSH1 0x4 DUP1 CALLDATASIZE SUB DUP2 ADD SWAP1 PUSH2 0x149 SWAP2 SWAP1 PUSH2 0x14AF JUMP JUMPDEST PUSH2 0x476 JUMP JUMPDEST PUSH1 0x40 MLOAD PUSH2 0x15B SWAP2 SWAP1 PUSH2 0x1658 JUMP JUMPDEST PUSH1 0x40 MLOAD DUP1 SWAP2 SUB SWAP1 RETURN JUMPDEST CALLVALUE DUP1 ISZERO PUSH2 0x16F JUMPI PUSH0 PUSH0 REVERT JUMPDEST POP PUSH2 0x178 PUSH2 0x5CE JUMP JUMPDEST PUSH1 0x40 MLOAD PUSH2 0x185 SWAP2 SWAP1 PUSH2 0x17EF JUMP JUMPDEST PUSH1 0x40 MLOAD DUP1 SWAP2 SUB SWAP1 RETURN JUMPDEST CALLVALUE DUP1 ISZERO PUSH2 0x199 JUMPI PUSH0 PUSH0 REVERT JUMPDEST POP PUSH2 0x1A2 PUSH2 0x5DE JUMP JUMPDEST PUSH1 0x40 MLOAD PUSH2 0x1AF SWAP2 SWAP1 PUSH2 0x1817 JUMP JUMPDEST PUSH1 0x40 MLOAD DUP1 SWAP2 SUB SWAP1 RETURN JUMPDEST CALLVALUE DUP1 ISZERO PUSH2 0x1C3 JUMPI PUSH0 PUSH0 REVERT JUMPDEST POP PUSH2 0x1CC PUSH2 0x5F0 JUMP JUMPDEST PUSH1 0x40 MLOAD PUSH2 0x1D9 SWAP2 SWAP1 PUSH2 0x184A JUMP JUMPDEST PUSH1 0x40 MLOAD DUP1 SWAP2 SUB SWAP1 RETURN JUMPDEST CALLVALUE DUP1 ISZERO PUSH2 0x1ED JUMPI PUSH0 PUSH0 REVERT JUMPDEST POP PUSH2 0x1F6 PUSH2 0x601 JUMP JUMPDEST PUSH1 0x40 MLOAD PUSH2 0x203 SWAP2 SWAP1 PUSH2 0x184A JUMP JUMPDEST PUSH1 0x40 MLOAD DUP1 SWAP2 SUB SWAP1 RETURN JUMPDEST CALLVALUE DUP1 ISZERO PUSH2 0x217 JUMPI PUSH0 PUSH0 REVERT JUMPDEST POP PUSH2 0x220 PUSH2 0x613 JUMP JUMPDEST PUSH1 0x40 MLOAD PUSH2 0x22D SWAP2 SWAP1 PUSH2 0x184A JUMP JUMPDEST PUSH1 0x40 MLOAD DUP1 SWAP2 SUB SWAP1 RETURN JUMPDEST CALLVALUE DUP1 ISZERO PUSH2 0x241 JUMPI PUSH0 PUSH0 REVERT JUMPDEST POP PUSH2 0x24A PUSH2 0x629 JUMP JUMPDEST PUSH1 0x40 MLOAD PUSH2 0x257 SWAP2 SWAP1 PUSH2 0x17EF JUMP JUMPDEST PUSH1 0x40 MLOAD DUP1 SWAP2 SUB SWAP1 RETURN JUMPDEST CALLVALUE DUP1 ISZERO PUSH2 0x26B JUMPI PUSH0 PUSH0 REVERT JUMPDEST POP PUSH2 0x274 PUSH2 0x638 JUMP JUMPDEST PUSH1 0x40 MLOAD PUSH2 0x281 SWAP2 SWAP1 PUSH2 0x187B JUMP JUMPDEST PUSH1 0x40 MLOAD DUP1 SWAP2 SUB SWAP1 RETURN JUMPDEST PUSH2 0x2A4 PUSH1 0x4 DUP1 CALLDATASIZE SUB DUP2 ADD SWAP1 PUSH2 0x29F SWAP2 SWAP1 PUSH2 0x1A10 JUMP JUMPDEST PUSH2 0x648 JUMP JUMPDEST PUSH1 0x40 MLOAD PUSH2 0x2B1 SWAP2 SWAP1 PUSH2 0x1AC4 JUMP JUMPDEST PUSH1 0x40 MLOAD DUP1 SWAP2 SUB SWAP1 RETURN JUMPDEST CALLVALUE DUP1 ISZERO PUSH2 0x2C5 JUMPI PUSH0 PUSH0 REVERT JUMPDEST POP PUSH2 0x2CE PUSH2 0x82E JUMP JUMPDEST PUSH1 0x40 MLOAD PUSH2 0x2DB SWAP2 SWAP1 PUSH2 0x187B JUMP JUMPDEST PUSH1 0x40 MLOAD DUP1 SWAP2 SUB SWAP1 RETURN JUMPDEST CALLVALUE DUP1 ISZERO PUSH2 0x2EF JUMPI PUSH0 PUSH0 REVERT JUMPDEST POP PUSH2 0x2F8 PUSH2 0x83E JUMP JUMPDEST STOP JUMPDEST PUSH1 0x60 PUSH2 0x304 PUSH2 0x5CE JUMP JUMPDEST PUSH20 0xFFFFFFFFFFFFFFFFFFFFFFFFFFFFFFFFFFFFFFFF AND CALLER PUSH20 0xFFFFFFFFFFFFFFFFFFFFFFFFFFFFFFFFFFFFFFFF AND EQ PUSH2 0x368 JUMPI PUSH1 0x40 MLOAD PUSH32 0xB271766700000000000000000000000000000000000000000000000000000000 DUP2 MSTORE PUSH1 0x4 ADD PUSH1 0x40 MLOAD DUP1 SWAP2 SUB SWAP1 REVERT JUMPDEST PUSH1 0x1 PUSH0 PUSH0 PUSH2 0x100 EXP DUP2 SLOAD DUP2 PUSH1 0xFF MUL NOT AND SWAP1 DUP4 ISZERO ISZERO MUL OR SWAP1 SSTORE POP PUSH2 0x398 DUP6 DUP6 DUP6 DUP6 SWAP1 PUSH2 0x393 SWAP2 SWAP1 PUSH2 0x1B95 JUMP JUMPDEST PUSH2 0x918 JUMP JUMPDEST SWAP1 POP SWAP5 SWAP4 POP POP POP POP JUMP JUMPDEST PUSH0 PUSH0 DUP5 CHAINID ADDRESS PUSH1 0x40 MLOAD PUSH1 0x20 ADD PUSH2 0x3B9 SWAP4 SWAP3 SWAP2 SWAP1 PUSH2 0x1BA9 JUMP JUMPDEST PUSH1 0x40 MLOAD PUSH1 0x20 DUP2 DUP4 SUB SUB DUP2 MSTORE SWAP1 PUSH1 0x40 MSTORE DUP1 MLOAD SWAP1 PUSH1 0x20 ADD KECCAK256 SWAP1 POP PUSH2 0x3D9 PUSH2 0x629 JUMP JUMPDEST PUSH20 0xFFFFFFFFFFFFFFFFFFFFFFFFFFFFFFFFFFFFFFFF AND PUSH2 0x43C DUP3 DUP7 DUP7 DUP1 DUP1 PUSH1 0x1F ADD PUSH1 0x20 DUP1 SWAP2 DIV MUL PUSH1 0x20 ADD PUSH1 0x40 MLOAD SWAP1 DUP2 ADD PUSH1 0x40 MSTORE DUP1 SWAP4 SWAP3 SWAP2 SWAP1 DUP2 DUP2 MSTORE PUSH1 0x20 ADD DUP4 DUP4 DUP1 DUP3 DUP5 CALLDATACOPY PUSH0 DUP2 DUP5 ADD MSTORE PUSH1 0x1F NOT PUSH1 0x1F DUP3 ADD AND SWAP1 POP DUP1 DUP4 ADD SWAP3 POP POP POP POP POP POP POP PUSH2 0xD76 JUMP JUMPDEST PUSH20 0xFFFFFFFFFFFFFFFFFFFFFFFFFFFFFFFFFFFFFFFF AND SUB PUSH2 0x467 JUMPI PUSH4 0x1626BA7E PUSH1 0xE0 SHL SWAP2 POP POP PUSH2 0x46F JUMP JUMPDEST PUSH0 PUSH1 0xE0 SHL SWAP2 POP POP JUMPDEST SWAP4 SWAP3 POP POP POP JUMP JUMPDEST PUSH1 0x60 PUSH2 0x480 PUSH2 0x629 JUMP JUMPDEST PUSH20 0xFFFFFFFFFFFFFFFFFFFFFFFFFFFFFFFFFFFFFFFF AND CALLER PUSH20 0xFFFFFFFFFFFFFFFFFFFFFFFFFFFFFFFFFFFFFFFF AND EQ PUSH2 0x4E4 JUMPI PUSH1 0x40 MLOAD PUSH32 0x30CD747100000000000000000000000000000000000000000000000000000000 DUP2 MSTORE PUSH1 0x4 ADD PUSH1 0x40 MLOAD DUP1 SWAP2 SUB SWAP1 REVERT JUMPDEST PUSH0 PUSH1 0x1 SWAP1 SLOAD SWAP1 PUSH2 0x100 EXP SWAP1 DIV PUSH1 0xFF AND ISZERO DUP1 ISZERO PUSH2 0x506 JUMPI POP TIMESTAMP PUSH2 0x504 PUSH2 0x82E JUMP JUMPDEST GT JUMPDEST ISZERO PUSH2 0x53D JUMPI PUSH1 0x40 MLOAD PUSH32 0xD550ED2400000000000000000000000000000000000000000000000000000000 DUP2 MSTORE PUSH1 0x4 ADD PUSH1 0x40 MLOAD DUP1 SWAP2 SUB SWAP1 REVERT JUMPDEST PUSH0 PUSH0 SWAP1 SLOAD SWAP1 PUSH2 0x100 EXP SWAP1 DIV PUSH1 0xFF AND PUSH2 0x581 JUMPI PUSH1 0x40 MLOAD PUSH32 0x5FEE1E200000000000000000000000000000000000000000000000000000000 DUP2 MSTORE PUSH1 0x4 ADD PUSH1 0x40 MLOAD DUP1 SWAP2 SUB SWAP1 REVERT JUMPDEST PUSH32 0x19F0B89B5C0F05620D67B659885AE073C29FA80357783988104F4DAA4ECFD511 PUSH1 0x40 MLOAD PUSH1 0x40 MLOAD DUP1 SWAP2 SUB SWAP1 LOG1 PUSH2 0x5C4 DUP6 DUP6 DUP6 DUP6 SWAP1 PUSH2 0x5BF SWAP2 SWAP1 PUSH2 0x1B95 JUMP JUMPDEST PUSH2 0x918 JUMP JUMPDEST SWAP1 POP SWAP5 SWAP4 POP POP POP POP JUMP JUMPDEST PUSH0 PUSH2 0x5D9 PUSH1 0x14 PUSH2 0xDFA JUMP JUMPDEST SWAP1 POP SWAP1 JUMP JUMPDEST PUSH0 PUSH2 0x5E9 PUSH1 0x69 PUSH2 0xE15 JUMP JUMPDEST PUSH0 SHL SWAP1 POP SWAP1 JUMP JUMPDEST PUSH0 PUSH0 SWAP1 SLOAD SWAP1 PUSH2 0x100 EXP SWAP1 DIV PUSH1 0xFF AND DUP2 JUMP JUMPDEST PUSH0 PUSH1 0x1 SWAP1 SLOAD SWAP1 PUSH2 0x100 EXP SWAP1 DIV PUSH1 0xFF AND DUP2 JUMP JUMPDEST PUSH0 PUSH0 PUSH2 0x61F PUSH1 0x68 PUSH2 0xE2D JUMP JUMPDEST PUSH1 0xFF AND EQ ISZERO SWAP1 POP SWAP1 JUMP JUMPDEST PUSH0 PUSH2 0x633 PUSH0 PUSH2 0xDFA JUMP JUMPDEST SWAP1 POP SWAP1 JUMP JUMPDEST PUSH0 PUSH2 0x643 PUSH1 0x28 PUSH2 0xE15 JUMP JUMPDEST SWAP1 POP SWAP1 JUMP JUMPDEST PUSH1 0x60 PUSH2 0x652 PUSH2 0x629 JUMP JUMPDEST PUSH20 0xFFFFFFFFFFFFFFFFFFFFFFFFFFFFFFFFFFFFFFFF AND CALLER PUSH20 0xFFFFFFFFFFFFFFFFFFFFFFFFFFFFFFFFFFFFFFFF AND EQ PUSH2 0x6B6 JUMPI PUSH1 0x40 MLOAD PUSH32 0x30CD747100000000000000000000000000000000000000000000000000000000 DUP2 MSTORE PUSH1 0x4 ADD PUSH1 0x40 MLOAD DUP1 SWAP2 SUB SWAP1 REVERT JUMPDEST PUSH0 PUSH1 0x1 SWAP1 SLOAD SWAP1 PUSH2 0x100 EXP SWAP1 DIV PUSH1 0xFF AND ISZERO DUP1 ISZERO PUSH2 0x6D8 JUMPI POP TIMESTAMP PUSH2 0x6D6 PUSH2 0x82E JUMP JUMPDEST GT JUMPDEST ISZERO PUSH2 0x70F JUMPI PUSH1 0x40 MLOAD PUSH32 0xD550ED2400000000000000000000000000000000000000000000000000000000 DUP2 MSTORE PUSH1 0x4 ADD PUSH1 0x40 MLOAD DUP1 SWAP2 SUB SWAP1 REVERT JUMPDEST PUSH0 PUSH0 SWAP1 SLOAD SWAP1 PUSH2 0x100 EXP SWAP1 DIV PUSH1 0xFF AND PUSH2 0x753 JUMPI PUSH1 0x40 MLOAD PUSH32 0x5FEE1E200000000000000000000000000000000000000000000000000000000 DUP2 MSTORE PUSH1 0x4 ADD PUSH1 0x40 MLOAD DUP1 SWAP2 SUB SWAP1 REVERT JUMPDEST PUSH0 PUSH0 DUP6 PUSH20 0xFFFFFFFFFFFFFFFFFFFFFFFFFFFFFFFFFFFFFFFF AND DUP6 DUP6 PUSH1 0x40 MLOAD PUSH2 0x77B SWAP2 SWAP1 PUSH2 0x1C18 JUMP JUMPDEST PUSH0 PUSH1 0x40 MLOAD DUP1 DUP4 SUB DUP2 DUP6 DUP8 GAS CALL SWAP3 POP POP POP RETURNDATASIZE DUP1 PUSH0 DUP2 EQ PUSH2 0x7B5 JUMPI PUSH1 0x40 MLOAD SWAP2 POP PUSH1 0x1F NOT PUSH1 0x3F RETURNDATASIZE ADD AND DUP3 ADD PUSH1 0x40 MSTORE RETURNDATASIZE DUP3 MSTORE RETURNDATASIZE PUSH0 PUSH1 0x20 DUP5 ADD RETURNDATACOPY PUSH2 0x7BA JUMP JUMPDEST PUSH1 0x60 SWAP2 POP JUMPDEST POP SWAP2 POP SWAP2 POP DUP2 PUSH2 0x7F6 JUMPI PUSH1 0x40 MLOAD PUSH32 0x2CB48AA600000000000000000000000000000000000000000000000000000000 DUP2 MSTORE PUSH1 0x4 ADD PUSH1 0x40 MLOAD DUP1 SWAP2 SUB SWAP1 REVERT JUMPDEST PUSH32 0x19F0B89B5C0F05620D67B659885AE073C29FA80357783988104F4DAA4ECFD511 PUSH1 0x40 MLOAD PUSH1 0x40 MLOAD DUP1 SWAP2 SUB SWAP1 LOG1 DUP1 SWAP3 POP POP POP SWAP4 SWAP3 POP POP POP JUMP JUMPDEST PUSH0 PUSH2 0x839 PUSH1 0x48 PUSH2 0xE15 JUMP JUMPDEST SWAP1 POP SWAP1 JUMP JUMPDEST PUSH2 0x846 PUSH2 0x5CE JUMP JUMPDEST PUSH20 0xFFFFFFFFFFFFFFFFFFFFFFFFFFFFFFFFFFFFFFFF AND CALLER PUSH20 0xFFFFFFFFFFFFFFFFFFFFFFFFFFFFFFFFFFFFFFFF AND EQ PUSH2 0x8AA JUMPI PUSH1 0x40 MLOAD PUSH32 0xB271766700000000000000000000000000000000000000000000000000000000 DUP2 MSTORE PUSH1 0x4 ADD PUSH1 0x40 MLOAD DUP1 SWAP2 SUB SWAP1 REVERT JUMPDEST PUSH2 0x8B2 PUSH2 0x613 JUMP JUMPDEST ISZERO DUP1 PUSH2 0x8C5 JUMPI POP PUSH2 0x8C1 PUSH2 0x82E JUMP JUMPDEST TIMESTAMP LT ISZERO JUMPDEST ISZERO PUSH2 0x8FC JUMPI PUSH1 0x40 MLOAD PUSH32 0xB44BB11000000000000000000000000000000000000000000000000000000000 DUP2 MSTORE PUSH1 0x4 ADD PUSH1 0x40 MLOAD DUP1 SWAP2 SUB SWAP1 REVERT JUMPDEST PUSH1 0x1 PUSH0 PUSH1 0x1 PUSH2 0x100 EXP DUP2 SLOAD DUP2 PUSH1 0xFF MUL NOT AND SWAP1 DUP4 ISZERO ISZERO MUL OR SWAP1 SSTORE POP JUMP JUMPDEST PUSH1 0x60 PUSH0 PUSH0 PUSH0 PUSH0 PUSH1 0x60 PUSH0 DUP10 DUP10 SWAP1 POP SWAP1 POP PUSH0 JUMPDEST DUP2 DUP2 LT ISZERO PUSH2 0xD65 JUMPI DUP11 DUP11 DUP3 DUP2 DUP2 LT PUSH2 0x944 JUMPI PUSH2 0x943 PUSH2 0x1C2E JUMP JUMPDEST JUMPDEST SWAP1 POP PUSH1 0x20 MUL ADD CALLDATALOAD SWAP7 POP PUSH1 0x20 DUP8 SWAP1 SHL PUSH1 0xF8 SHR PUSH1 0xFF AND SWAP6 POP PUSH0 PUSH1 0x40 DUP8 AND EQ PUSH2 0x991 JUMPI DUP11 DUP11 DUP3 DUP1 PUSH2 0x971 SWAP1 PUSH2 0x1C88 JUMP JUMPDEST SWAP4 POP DUP2 DUP2 LT PUSH2 0x983 JUMPI PUSH2 0x982 PUSH2 0x1C2E JUMP JUMPDEST JUMPDEST SWAP1 POP PUSH1 0x20 MUL ADD CALLDATALOAD SWAP5 POP PUSH2 0x9B9 JUMP JUMPDEST PUSH26 0xFFFFFFFFFFFFFFFFFFFFFFFFFFFFFFFFFFFFFFFFFFFFFFFFFFFF PUSH1 0x28 DUP9 SWAP1 SHL PUSH0 SHR OR PUSH0 SHL SWAP5 POP JUMPDEST PUSH0 PUSH1 0x3 DUP8 AND SUB PUSH2 0xA49 JUMPI DUP7 PUSH0 SHR PUSH20 0xFFFFFFFFFFFFFFFFFFFFFFFFFFFFFFFFFFFFFFFF AND PUSH2 0x9F1 DUP9 DUP8 DUP13 PUSH2 0xE48 SWAP1 SWAP3 SWAP2 SWAP1 PUSH4 0xFFFFFFFF AND JUMP JUMPDEST PUSH1 0x40 MLOAD PUSH2 0x9FE SWAP2 SWAP1 PUSH2 0x1C18 JUMP JUMPDEST PUSH0 PUSH1 0x40 MLOAD DUP1 DUP4 SUB DUP2 DUP6 GAS DELEGATECALL SWAP2 POP POP RETURNDATASIZE DUP1 PUSH0 DUP2 EQ PUSH2 0xA36 JUMPI PUSH1 0x40 MLOAD SWAP2 POP PUSH1 0x1F NOT PUSH1 0x3F RETURNDATASIZE ADD AND DUP3 ADD PUSH1 0x40 MSTORE RETURNDATASIZE DUP3 MSTORE RETURNDATASIZE PUSH0 PUSH1 0x20 DUP5 ADD RETURNDATACOPY PUSH2 0xA3B JUMP JUMPDEST PUSH1 0x60 SWAP2 POP JUMPDEST POP DUP1 SWAP5 POP DUP2 SWAP6 POP POP POP PUSH2 0xC75 JUMP JUMPDEST PUSH1 0x1 PUSH1 0x3 DUP8 AND SUB PUSH2 0xADB JUMPI DUP7 PUSH0 SHR PUSH20 0xFFFFFFFFFFFFFFFFFFFFFFFFFFFFFFFFFFFFFFFF AND PUSH2 0xA82 DUP9 DUP8 DUP13 PUSH2 0xE48 SWAP1 SWAP3 SWAP2 SWAP1 PUSH4 0xFFFFFFFF AND JUMP JUMPDEST PUSH1 0x40 MLOAD PUSH2 0xA8F SWAP2 SWAP1 PUSH2 0x1C18 JUMP JUMPDEST PUSH0 PUSH1 0x40 MLOAD DUP1 DUP4 SUB DUP2 PUSH0 DUP7 GAS CALL SWAP2 POP POP RETURNDATASIZE DUP1 PUSH0 DUP2 EQ PUSH2 0xAC8 JUMPI PUSH1 0x40 MLOAD SWAP2 POP PUSH1 0x1F NOT PUSH1 0x3F RETURNDATASIZE ADD AND DUP3 ADD PUSH1 0x40 MSTORE RETURNDATASIZE DUP3 MSTORE RETURNDATASIZE PUSH0 PUSH1 0x20 DUP5 ADD RETURNDATACOPY PUSH2 0xACD JUMP JUMPDEST PUSH1 0x60 SWAP2 POP JUMPDEST POP DUP1 SWAP5 POP DUP2 SWAP6 POP POP POP PUSH2 0xC74 JUMP JUMPDEST PUSH1 0x2 PUSH1 0x3 DUP8 AND SUB PUSH2 0xB6C JUMPI DUP7 PUSH0 SHR PUSH20 0xFFFFFFFFFFFFFFFFFFFFFFFFFFFFFFFFFFFFFFFF AND PUSH2 0xB14 DUP9 DUP8 DUP13 PUSH2 0xE48 SWAP1 SWAP3 SWAP2 SWAP1 PUSH4 0xFFFFFFFF AND JUMP JUMPDEST PUSH1 0x40 MLOAD PUSH2 0xB21 SWAP2 SWAP1 PUSH2 0x1C18 JUMP JUMPDEST PUSH0 PUSH1 0x40 MLOAD DUP1 DUP4 SUB DUP2 DUP6 GAS STATICCALL SWAP2 POP POP RETURNDATASIZE DUP1 PUSH0 DUP2 EQ PUSH2 0xB59 JUMPI PUSH1 0x40 MLOAD SWAP2 POP PUSH1 0x1F NOT PUSH1 0x3F RETURNDATASIZE ADD AND DUP3 ADD PUSH1 0x40 MSTORE RETURNDATASIZE DUP3 MSTORE RETURNDATASIZE PUSH0 PUSH1 0x20 DUP5 ADD RETURNDATACOPY PUSH2 0xB5E JUMP JUMPDEST PUSH1 0x60 SWAP2 POP JUMPDEST POP DUP1 SWAP5 POP DUP2 SWAP6 POP POP POP PUSH2 0xC73 JUMP JUMPDEST PUSH1 0x3 DUP1 DUP8 AND SUB PUSH2 0xC37 JUMPI PUSH0 PUSH0 DUP11 DUP8 PUSH1 0xF8 SHR PUSH1 0xFF AND DUP2 MLOAD DUP2 LT PUSH2 0xB91 JUMPI PUSH2 0xB90 PUSH2 0x1C2E JUMP JUMPDEST JUMPDEST PUSH1 0x20 MUL PUSH1 0x20 ADD ADD MLOAD SWAP1 POP PUSH1 0x20 DUP2 ADD DUP3 MSTORE DUP9 PUSH0 SHR PUSH20 0xFFFFFFFFFFFFFFFFFFFFFFFFFFFFFFFFFFFFFFFF AND DUP3 PUSH2 0xBDB DUP12 PUSH1 0xFF PUSH1 0x8 DUP13 SWAP1 SHL PUSH0 SHR OR PUSH0 SHL DUP16 PUSH2 0xE48 SWAP1 SWAP3 SWAP2 SWAP1 PUSH4 0xFFFFFFFF AND JUMP JUMPDEST PUSH1 0x40 MLOAD PUSH2 0xBE8 SWAP2 SWAP1 PUSH2 0x1C18 JUMP JUMPDEST PUSH0 PUSH1 0x40 MLOAD DUP1 DUP4 SUB DUP2 DUP6 DUP8 GAS CALL SWAP3 POP POP POP RETURNDATASIZE DUP1 PUSH0 DUP2 EQ PUSH2 0xC22 JUMPI PUSH1 0x40 MLOAD SWAP2 POP PUSH1 0x1F NOT PUSH1 0x3F RETURNDATASIZE ADD AND DUP3 ADD PUSH1 0x40 MSTORE RETURNDATASIZE DUP3 MSTORE RETURNDATASIZE PUSH0 PUSH1 0x20 DUP5 ADD RETURNDATACOPY PUSH2 0xC27 JUMP JUMPDEST PUSH1 0x60 SWAP2 POP JUMPDEST POP DUP1 SWAP7 POP DUP2 SWAP8 POP POP POP POP POP PUSH2 0xC72 JUMP JUMPDEST PUSH1 0x40 MLOAD PUSH32 0x8C379A000000000000000000000000000000000000000000000000000000000 DUP2 MSTORE PUSH1 0x4 ADD PUSH2 0xC69 SWAP1 PUSH2 0x1D29 JUMP JUMPDEST PUSH1 0x40 MLOAD DUP1 SWAP2 SUB SWAP1 REVERT JUMPDEST JUMPDEST JUMPDEST JUMPDEST DUP4 PUSH2 0xD11 JUMPI PUSH0 DUP4 MLOAD GT ISZERO PUSH2 0xC8A JUMPI PUSH1 0x44 DUP4 ADD SWAP3 POP JUMPDEST PUSH0 DUP8 PUSH0 SHR PUSH0 DUP6 MLOAD GT PUSH2 0xCD1 JUMPI PUSH1 0x40 MLOAD DUP1 PUSH1 0x40 ADD PUSH1 0x40 MSTORE DUP1 PUSH1 0x7 DUP2 MSTORE PUSH1 0x20 ADD PUSH32 0x556E6B6E6F776E00000000000000000000000000000000000000000000000000 DUP2 MSTORE POP PUSH2 0xCD3 JUMP JUMPDEST DUP5 JUMPDEST PUSH1 0x40 MLOAD PUSH32 0xEF3DCB2F00000000000000000000000000000000000000000000000000000000 DUP2 MSTORE PUSH1 0x4 ADD PUSH2 0xD08 SWAP4 SWAP3 SWAP2 SWAP1 PUSH2 0x1DCB JUMP JUMPDEST PUSH1 0x40 MLOAD DUP1 SWAP2 SUB SWAP1 REVERT JUMPDEST PUSH0 PUSH1 0x80 DUP8 AND EQ PUSH2 0xD39 JUMPI PUSH2 0xD34 PUSH1 0x58 DUP9 SWAP1 SHL DUP5 DUP12 PUSH2 0x11C2 SWAP1 SWAP3 SWAP2 SWAP1 PUSH4 0xFFFFFFFF AND JUMP JUMPDEST PUSH2 0xD55 JUMP JUMPDEST PUSH2 0xD52 PUSH1 0x58 DUP9 SWAP1 SHL DUP5 DUP12 PUSH2 0x1274 SWAP1 SWAP3 SWAP2 SWAP1 PUSH4 0xFFFFFFFF AND JUMP JUMPDEST SWAP9 POP JUMPDEST PUSH2 0xD5E DUP2 PUSH2 0x139E JUMP JUMPDEST SWAP1 POP PUSH2 0x929 JUMP JUMPDEST POP DUP8 SWAP7 POP POP POP POP POP POP POP SWAP4 SWAP3 POP POP POP JUMP JUMPDEST PUSH0 PUSH1 0x40 MLOAD PUSH1 0x1 ISZERO PUSH2 0xDF3 JUMPI DUP3 MLOAD PUSH1 0x40 DUP2 EQ PUSH2 0xD99 JUMPI PUSH1 0x41 DUP2 EQ PUSH2 0xDB8 JUMPI POP PUSH2 0xDF3 JUMP JUMPDEST PUSH1 0x40 DUP5 ADD MLOAD PUSH1 0x1B DUP2 PUSH1 0xFF SHR ADD PUSH1 0x20 MSTORE DUP1 PUSH1 0x1 SHL PUSH1 0x1 SHR PUSH1 0x60 MSTORE POP PUSH2 0xDCB JUMP JUMPDEST PUSH1 0x60 DUP5 ADD MLOAD PUSH0 BYTE PUSH1 0x20 MSTORE PUSH1 0x40 DUP5 ADD MLOAD PUSH1 0x60 MSTORE JUMPDEST POP DUP4 PUSH0 MSTORE PUSH1 0x20 DUP4 ADD MLOAD PUSH1 0x40 MSTORE PUSH1 0x20 PUSH1 0x40 PUSH1 0x80 PUSH0 PUSH1 0x1 GAS STATICCALL POP PUSH0 PUSH1 0x60 MSTORE RETURNDATASIZE PUSH1 0x60 XOR MLOAD SWAP2 POP DUP1 PUSH1 0x40 MSTORE JUMPDEST POP SWAP3 SWAP2 POP POP JUMP JUMPDEST PUSH0 PUSH0 PUSH2 0xE04 PUSH2 0x13AD JUMP JUMPDEST SWAP1 POP DUP3 DUP2 ADD CALLDATALOAD PUSH1 0x60 SHR SWAP2 POP POP SWAP2 SWAP1 POP JUMP JUMPDEST PUSH0 PUSH0 PUSH2 0xE1F PUSH2 0x13AD JUMP JUMPDEST SWAP1 POP DUP3 DUP2 ADD CALLDATALOAD SWAP2 POP POP SWAP2 SWAP1 POP JUMP JUMPDEST PUSH0 PUSH0 PUSH2 0xE37 PUSH2 0x13AD JUMP JUMPDEST SWAP1 POP DUP3 DUP2 ADD CALLDATALOAD PUSH1 0xF8 SHR SWAP2 POP POP SWAP2 SWAP1 POP JUMP JUMPDEST PUSH1 0x60 PUSH0 PUSH0 PUSH1 0x60 PUSH0 PUSH0 JUMPDEST PUSH1 0x20 DUP2 LT ISZERO PUSH2 0xFF7 JUMPI DUP7 DUP2 PUSH1 0x20 DUP2 LT PUSH2 0xE6D JUMPI PUSH2 0xE6C PUSH2 0x1C2E JUMP JUMPDEST JUMPDEST BYTE PUSH1 0xF8 SHL PUSH1 0xF8 SHR PUSH1 0xFF AND SWAP2 POP PUSH1 0xFF DUP3 SUB ISZERO PUSH2 0xFF7 JUMPI PUSH0 PUSH1 0x80 DUP4 AND EQ PUSH2 0xF70 JUMPI PUSH1 0xFE DUP3 SUB PUSH2 0xED9 JUMPI PUSH0 DUP4 MLOAD SUB PUSH2 0xEBF JUMPI DUP9 PUSH1 0x40 MLOAD PUSH1 0x20 ADD PUSH2 0xEAD SWAP2 SWAP1 PUSH2 0x1658 JUMP JUMPDEST PUSH1 0x40 MLOAD PUSH1 0x20 DUP2 DUP4 SUB SUB DUP2 MSTORE SWAP1 PUSH1 0x40 MSTORE SWAP3 POP JUMPDEST DUP3 MLOAD DUP6 PUSH2 0xECC SWAP2 SWAP1 PUSH2 0x1E07 JUMP JUMPDEST SWAP5 POP PUSH1 0x20 DUP5 ADD SWAP4 POP PUSH2 0xF6B JUMP JUMPDEST PUSH0 DUP10 PUSH1 0x7F DUP5 AND DUP2 MLOAD DUP2 LT PUSH2 0xEF0 JUMPI PUSH2 0xEEF PUSH2 0x1C2E JUMP JUMPDEST JUMPDEST PUSH1 0x20 MUL PUSH1 0x20 ADD ADD MLOAD MLOAD SWAP1 POP PUSH0 PUSH1 0x20 DUP3 PUSH2 0xF09 SWAP2 SWAP1 PUSH2 0x1E67 JUMP JUMPDEST EQ PUSH2 0xF49 JUMPI PUSH1 0x40 MLOAD PUSH32 0x8C379A000000000000000000000000000000000000000000000000000000000 DUP2 MSTORE PUSH1 0x4 ADD PUSH2 0xF40 SWAP1 PUSH2 0x1F07 JUMP JUMPDEST PUSH1 0x40 MLOAD DUP1 SWAP2 SUB SWAP1 REVERT JUMPDEST PUSH1 0x20 DUP2 PUSH2 0xF56 SWAP2 SWAP1 PUSH2 0x1E07 JUMP JUMPDEST DUP7 PUSH2 0xF61 SWAP2 SWAP1 PUSH2 0x1E07 JUMP JUMPDEST SWAP6 POP PUSH1 0x20 DUP6 ADD SWAP5 POP POP JUMPDEST PUSH2 0xFE7 JUMP JUMPDEST PUSH1 0x20 DUP10 PUSH1 0x7F DUP5 AND DUP2 MLOAD DUP2 LT PUSH2 0xF88 JUMPI PUSH2 0xF87 PUSH2 0x1C2E JUMP JUMPDEST JUMPDEST PUSH1 0x20 MUL PUSH1 0x20 ADD ADD MLOAD MLOAD EQ PUSH2 0xFD1 JUMPI PUSH1 0x40 MLOAD PUSH32 0x8C379A000000000000000000000000000000000000000000000000000000000 DUP2 MSTORE PUSH1 0x4 ADD PUSH2 0xFC8 SWAP1 PUSH2 0x1F95 JUMP JUMPDEST PUSH1 0x40 MLOAD DUP1 SWAP2 SUB SWAP1 REVERT JUMPDEST PUSH1 0x20 DUP6 PUSH2 0xFDE SWAP2 SWAP1 PUSH2 0x1E07 JUMP JUMPDEST SWAP5 POP PUSH1 0x20 DUP5 ADD SWAP4 POP JUMPDEST PUSH2 0xFF0 DUP2 PUSH2 0x13BF JUMP JUMPDEST SWAP1 POP PUSH2 0xE51 JUMP JUMPDEST POP PUSH1 0x4 DUP5 PUSH2 0x1005 SWAP2 SWAP1 PUSH2 0x1E07 JUMP JUMPDEST PUSH8 0xFFFFFFFFFFFFFFFF DUP2 GT ISZERO PUSH2 0x101E JUMPI PUSH2 0x101D PUSH2 0x18EC JUMP JUMPDEST JUMPDEST PUSH1 0x40 MLOAD SWAP1 DUP1 DUP3 MSTORE DUP1 PUSH1 0x1F ADD PUSH1 0x1F NOT AND PUSH1 0x20 ADD DUP3 ADD PUSH1 0x40 MSTORE DUP1 ISZERO PUSH2 0x1050 JUMPI DUP2 PUSH1 0x20 ADD PUSH1 0x1 DUP3 MUL DUP1 CALLDATASIZE DUP4 CALLDATACOPY DUP1 DUP3 ADD SWAP2 POP POP SWAP1 POP JUMPDEST POP SWAP5 POP DUP7 PUSH1 0x20 DUP7 ADD MSTORE PUSH0 SWAP4 POP PUSH0 JUMPDEST PUSH1 0x20 DUP2 LT ISZERO PUSH2 0x11B6 JUMPI DUP7 DUP2 PUSH1 0x20 DUP2 LT PUSH2 0x107A JUMPI PUSH2 0x1079 PUSH2 0x1C2E JUMP JUMPDEST JUMPDEST BYTE PUSH1 0xF8 SHL PUSH1 0xF8 SHR PUSH1 0xFF AND SWAP2 POP PUSH1 0xFF DUP3 SUB ISZERO PUSH2 0x11B6 JUMPI PUSH0 PUSH1 0x80 DUP4 AND EQ PUSH2 0x1171 JUMPI PUSH1 0xFE DUP3 SUB PUSH2 0x10F6 JUMPI DUP4 DUP6 PUSH1 0x24 DUP9 ADD ADD MSTORE PUSH2 0x10D0 DUP4 PUSH1 0x20 DUP9 PUSH1 0x4 DUP9 PUSH2 0x10BD SWAP2 SWAP1 PUSH2 0x1E07 JUMP JUMPDEST PUSH1 0x20 DUP9 MLOAD PUSH2 0x10CB SWAP2 SWAP1 PUSH2 0x1FB3 JUMP JUMPDEST PUSH2 0x13CE JUMP JUMPDEST PUSH1 0x20 DUP4 MLOAD PUSH2 0x10DE SWAP2 SWAP1 PUSH2 0x1FB3 JUMP JUMPDEST DUP5 PUSH2 0x10E9 SWAP2 SWAP1 PUSH2 0x1E07 JUMP JUMPDEST SWAP4 POP PUSH1 0x20 DUP6 ADD SWAP5 POP PUSH2 0x116C JUMP JUMPDEST PUSH0 DUP10 PUSH1 0x7F DUP5 AND DUP2 MLOAD DUP2 LT PUSH2 0x110D JUMPI PUSH2 0x110C PUSH2 0x1C2E JUMP JUMPDEST JUMPDEST PUSH1 0x20 MUL PUSH1 0x20 ADD ADD MLOAD MLOAD SWAP1 POP DUP5 DUP7 PUSH1 0x24 DUP10 ADD ADD MSTORE PUSH2 0x1156 DUP11 PUSH1 0x7F DUP6 AND DUP2 MLOAD DUP2 LT PUSH2 0x1139 JUMPI PUSH2 0x1138 PUSH2 0x1C2E JUMP JUMPDEST JUMPDEST PUSH1 0x20 MUL PUSH1 0x20 ADD ADD MLOAD PUSH0 DUP10 PUSH1 0x4 DUP10 PUSH2 0x1150 SWAP2 SWAP1 PUSH2 0x1E07 JUMP JUMPDEST DUP6 PUSH2 0x13CE JUMP JUMPDEST DUP1 DUP6 PUSH2 0x1162 SWAP2 SWAP1 PUSH2 0x1E07 JUMP JUMPDEST SWAP5 POP PUSH1 0x20 DUP7 ADD SWAP6 POP POP JUMPDEST PUSH2 0x11A6 JUMP JUMPDEST PUSH0 DUP10 PUSH1 0x7F DUP5 AND DUP2 MLOAD DUP2 LT PUSH2 0x1188 JUMPI PUSH2 0x1187 PUSH2 0x1C2E JUMP JUMPDEST JUMPDEST PUSH1 0x20 MUL PUSH1 0x20 ADD ADD MLOAD SWAP1 POP PUSH1 0x20 DUP2 ADD MLOAD DUP7 PUSH1 0x24 DUP10 ADD ADD MSTORE PUSH1 0x20 DUP7 ADD SWAP6 POP POP JUMPDEST PUSH2 0x11AF DUP2 PUSH2 0x13BF JUMP JUMPDEST SWAP1 POP PUSH2 0x105E JUMP JUMPDEST POP POP POP POP POP SWAP4 SWAP3 POP POP POP JUMP JUMPDEST PUSH0 DUP3 PUSH1 0xF8 SHR PUSH1 0xFF AND SWAP1 POP PUSH1 0xFF DUP2 SUB PUSH2 0x11DA JUMPI POP PUSH2 0x126F JUMP JUMPDEST PUSH0 PUSH1 0x20 DUP4 MLOAD PUSH2 0x11E9 SWAP2 SWAP1 PUSH2 0x1E07 JUMP JUMPDEST PUSH8 0xFFFFFFFFFFFFFFFF DUP2 GT ISZERO PUSH2 0x1202 JUMPI PUSH2 0x1201 PUSH2 0x18EC JUMP JUMPDEST JUMPDEST PUSH1 0x40 MLOAD SWAP1 DUP1 DUP3 MSTORE DUP1 PUSH1 0x1F ADD PUSH1 0x1F NOT AND PUSH1 0x20 ADD DUP3 ADD PUSH1 0x40 MSTORE DUP1 ISZERO PUSH2 0x1234 JUMPI DUP2 PUSH1 0x20 ADD PUSH1 0x1 DUP3 MUL DUP1 CALLDATASIZE DUP4 CALLDATACOPY DUP1 DUP3 ADD SWAP2 POP POP SWAP1 POP JUMPDEST POP DUP6 DUP4 DUP2 MLOAD DUP2 LT PUSH2 0x1248 JUMPI PUSH2 0x1247 PUSH2 0x1C2E JUMP JUMPDEST JUMPDEST PUSH1 0x20 MUL PUSH1 0x20 ADD ADD DUP2 SWAP1 MSTORE SWAP1 POP PUSH2 0x1263 DUP4 PUSH0 DUP4 PUSH1 0x20 DUP8 MLOAD PUSH2 0x13CE JUMP JUMPDEST DUP3 MLOAD DUP1 PUSH1 0x20 DUP4 ADD MSTORE POP POP POP JUMPDEST POP POP POP JUMP JUMPDEST PUSH1 0x60 PUSH0 DUP4 PUSH1 0xF8 SHR PUSH1 0xFF AND SWAP1 POP PUSH1 0xFF DUP2 SUB PUSH2 0x1291 JUMPI DUP5 SWAP2 POP POP PUSH2 0x1397 JUMP JUMPDEST PUSH0 PUSH1 0x80 DUP3 AND EQ PUSH2 0x132B JUMPI PUSH1 0xFE DUP2 SUB PUSH2 0x12BE JUMPI DUP3 DUP1 PUSH1 0x20 ADD SWAP1 MLOAD DUP2 ADD SWAP1 PUSH2 0x12B7 SWAP2 SWAP1 PUSH2 0x2107 JUMP JUMPDEST SWAP5 POP PUSH2 0x1326 JUMP JUMPDEST PUSH0 PUSH1 0x20 DUP5 ADD MLOAD SWAP1 POP PUSH1 0x20 DUP2 EQ PUSH2 0x1309 JUMPI PUSH1 0x40 MLOAD PUSH32 0x8C379A000000000000000000000000000000000000000000000000000000000 DUP2 MSTORE PUSH1 0x4 ADD PUSH2 0x1300 SWAP1 PUSH2 0x21BE JUMP JUMPDEST PUSH1 0x40 MLOAD DUP1 SWAP2 SUB SWAP1 REVERT JUMPDEST PUSH1 0x20 DUP5 MLOAD SUB PUSH1 0x20 DUP6 ADD MSTORE PUSH1 0x20 DUP5 ADD PUSH1 0x20 PUSH1 0x7F DUP5 AND MUL PUSH1 0x20 DUP9 ADD ADD MSTORE POP JUMPDEST PUSH2 0x1392 JUMP JUMPDEST PUSH1 0x20 DUP4 MLOAD EQ PUSH2 0x136F JUMPI PUSH1 0x40 MLOAD PUSH32 0x8C379A000000000000000000000000000000000000000000000000000000000 DUP2 MSTORE PUSH1 0x4 ADD PUSH2 0x1366 SWAP1 PUSH2 0x224C JUMP JUMPDEST PUSH1 0x40 MLOAD DUP1 SWAP2 SUB SWAP1 REVERT JUMPDEST DUP3 DUP6 PUSH1 0x7F DUP4 AND DUP2 MLOAD DUP2 LT PUSH2 0x1386 JUMPI PUSH2 0x1385 PUSH2 0x1C2E JUMP JUMPDEST JUMPDEST PUSH1 0x20 MUL PUSH1 0x20 ADD ADD DUP2 SWAP1 MSTORE POP JUMPDEST DUP5 SWAP2 POP POP JUMPDEST SWAP4 SWAP3 POP POP POP JUMP JUMPDEST PUSH0 DUP2 PUSH1 0x1 ADD SWAP2 POP DUP2 SWAP1 POP SWAP2 SWAP1 POP JUMP JUMPDEST PUSH0 PUSH1 0x2 DUP1 CALLDATASIZE SUB CALLDATALOAD PUSH1 0xF0 SHR ADD CALLDATASIZE SUB SWAP1 POP SWAP1 JUMP JUMPDEST PUSH0 DUP2 PUSH1 0x1 ADD SWAP2 POP DUP2 SWAP1 POP SWAP2 SWAP1 POP JUMP JUMPDEST DUP1 DUP3 PUSH1 0x20 DUP6 ADD ADD DUP3 DUP7 PUSH1 0x20 DUP10 ADD ADD PUSH1 0x4 GAS STATICCALL POP POP POP POP POP POP JUMP JUMPDEST PUSH0 PUSH1 0x40 MLOAD SWAP1 POP SWAP1 JUMP JUMPDEST PUSH0 PUSH0 REVERT JUMPDEST PUSH0 PUSH0 REVERT JUMPDEST PUSH0 PUSH0 REVERT JUMPDEST PUSH0 PUSH0 REVERT JUMPDEST PUSH0 PUSH0 REVERT JUMPDEST PUSH0 PUSH0 DUP4 PUSH1 0x1F DUP5 ADD SLT PUSH2 0x141A JUMPI PUSH2 0x1419 PUSH2 0x13F9 JUMP JUMPDEST JUMPDEST DUP3 CALLDATALOAD SWAP1 POP PUSH8 0xFFFFFFFFFFFFFFFF DUP2 GT ISZERO PUSH2 0x1437 JUMPI PUSH2 0x1436 PUSH2 0x13FD JUMP JUMPDEST JUMPDEST PUSH1 0x20 DUP4 ADD SWAP2 POP DUP4 PUSH1 0x20 DUP3 MUL DUP4 ADD GT ISZERO PUSH2 0x1453 JUMPI PUSH2 0x1452 PUSH2 0x1401 JUMP JUMPDEST JUMPDEST SWAP3 POP SWAP3 SWAP1 POP JUMP JUMPDEST PUSH0 PUSH0 DUP4 PUSH1 0x1F DUP5 ADD SLT PUSH2 0x146F JUMPI PUSH2 0x146E PUSH2 0x13F9 JUMP JUMPDEST JUMPDEST DUP3 CALLDATALOAD SWAP1 POP PUSH8 0xFFFFFFFFFFFFFFFF DUP2 GT ISZERO PUSH2 0x148C JUMPI PUSH2 0x148B PUSH2 0x13FD JUMP JUMPDEST JUMPDEST PUSH1 0x20 DUP4 ADD SWAP2 POP DUP4 PUSH1 0x20 DUP3 MUL DUP4 ADD GT ISZERO PUSH2 0x14A8 JUMPI PUSH2 0x14A7 PUSH2 0x1401 JUMP JUMPDEST JUMPDEST SWAP3 POP SWAP3 SWAP1 POP JUMP JUMPDEST PUSH0 PUSH0 PUSH0 PUSH0 PUSH1 0x40 DUP6 DUP8 SUB SLT ISZERO PUSH2 0x14C7 JUMPI PUSH2 0x14C6 PUSH2 0x13F1 JUMP JUMPDEST JUMPDEST PUSH0 DUP6 ADD CALLDATALOAD PUSH8 0xFFFFFFFFFFFFFFFF DUP2 GT ISZERO PUSH2 0x14E4 JUMPI PUSH2 0x14E3 PUSH2 0x13F5 JUMP JUMPDEST JUMPDEST PUSH2 0x14F0 DUP8 DUP3 DUP9 ADD PUSH2 0x1405 JUMP JUMPDEST SWAP5 POP SWAP5 POP POP PUSH1 0x20 DUP6 ADD CALLDATALOAD PUSH8 0xFFFFFFFFFFFFFFFF DUP2 GT ISZERO PUSH2 0x1513 JUMPI PUSH2 0x1512 PUSH2 0x13F5 JUMP JUMPDEST JUMPDEST PUSH2 0x151F DUP8 DUP3 DUP9 ADD PUSH2 0x145A JUMP JUMPDEST SWAP3 POP SWAP3 POP POP SWAP3 SWAP6 SWAP2 SWAP5 POP SWAP3 POP JUMP JUMPDEST PUSH0 DUP2 MLOAD SWAP1 POP SWAP2 SWAP1 POP JUMP JUMPDEST PUSH0 DUP3 DUP3 MSTORE PUSH1 0x20 DUP3 ADD SWAP1 POP SWAP3 SWAP2 POP POP JUMP JUMPDEST PUSH0 DUP2 SWAP1 POP PUSH1 0x20 DUP3 ADD SWAP1 POP SWAP2 SWAP1 POP JUMP JUMPDEST PUSH0 DUP2 MLOAD SWAP1 POP SWAP2 SWAP1 POP JUMP JUMPDEST PUSH0 DUP3 DUP3 MSTORE PUSH1 0x20 DUP3 ADD SWAP1 POP SWAP3 SWAP2 POP POP JUMP JUMPDEST DUP3 DUP2 DUP4 MCOPY PUSH0 DUP4 DUP4 ADD MSTORE POP POP POP JUMP JUMPDEST PUSH0 PUSH1 0x1F NOT PUSH1 0x1F DUP4 ADD AND SWAP1 POP SWAP2 SWAP1 POP JUMP JUMPDEST PUSH0 PUSH2 0x1598 DUP3 PUSH2 0x1556 JUMP JUMPDEST PUSH2 0x15A2 DUP2 DUP6 PUSH2 0x1560 JUMP JUMPDEST SWAP4 POP PUSH2 0x15B2 DUP2 DUP6 PUSH1 0x20 DUP7 ADD PUSH2 0x1570 JUMP JUMPDEST PUSH2 0x15BB DUP2 PUSH2 0x157E JUMP JUMPDEST DUP5 ADD SWAP2 POP POP SWAP3 SWAP2 POP POP JUMP JUMPDEST PUSH0 PUSH2 0x15D1 DUP4 DUP4 PUSH2 0x158E JUMP JUMPDEST SWAP1 POP SWAP3 SWAP2 POP POP JUMP JUMPDEST PUSH0 PUSH1 0x20 DUP3 ADD SWAP1 POP SWAP2 SWAP1 POP JUMP JUMPDEST PUSH0 PUSH2 0x15EF DUP3 PUSH2 0x152D JUMP JUMPDEST PUSH2 0x15F9 DUP2 DUP6 PUSH2 0x1537 JUMP JUMPDEST SWAP4 POP DUP4 PUSH1 0x20 DUP3 MUL DUP6 ADD PUSH2 0x160B DUP6 PUSH2 0x1547 JUMP JUMPDEST DUP1 PUSH0 JUMPDEST DUP6 DUP2 LT ISZERO PUSH2 0x1646 JUMPI DUP5 DUP5 SUB DUP10 MSTORE DUP2 MLOAD PUSH2 0x1627 DUP6 DUP3 PUSH2 0x15C6 JUMP JUMPDEST SWAP5 POP PUSH2 0x1632 DUP4 PUSH2 0x15D9 JUMP JUMPDEST SWAP3 POP PUSH1 0x20 DUP11 ADD SWAP10 POP POP PUSH1 0x1 DUP2 ADD SWAP1 POP PUSH2 0x160E JUMP JUMPDEST POP DUP3 SWAP8 POP DUP8 SWAP6 POP POP POP POP POP POP SWAP3 SWAP2 POP POP JUMP JUMPDEST PUSH0 PUSH1 0x20 DUP3 ADD SWAP1 POP DUP2 DUP2 SUB PUSH0 DUP4 ADD MSTORE PUSH2 0x1670 DUP2 DUP5 PUSH2 0x15E5 JUMP JUMPDEST SWAP1 POP SWAP3 SWAP2 POP POP JUMP JUMPDEST PUSH0 DUP2 SWAP1 POP SWAP2 SWAP1 POP JUMP JUMPDEST PUSH2 0x168A DUP2 PUSH2 0x1678 JUMP JUMPDEST DUP2 EQ PUSH2 0x1694 JUMPI PUSH0 PUSH0 REVERT JUMPDEST POP JUMP JUMPDEST PUSH0 DUP2 CALLDATALOAD SWAP1 POP PUSH2 0x16A5 DUP2 PUSH2 0x1681 JUMP JUMPDEST SWAP3 SWAP2 POP POP JUMP JUMPDEST PUSH0 PUSH0 DUP4 PUSH1 0x1F DUP5 ADD SLT PUSH2 0x16C0 JUMPI PUSH2 0x16BF PUSH2 0x13F9 JUMP JUMPDEST JUMPDEST DUP3 CALLDATALOAD SWAP1 POP PUSH8 0xFFFFFFFFFFFFFFFF DUP2 GT ISZERO PUSH2 0x16DD JUMPI PUSH2 0x16DC PUSH2 0x13FD JUMP JUMPDEST JUMPDEST PUSH1 0x20 DUP4 ADD SWAP2 POP DUP4 PUSH1 0x1 DUP3 MUL DUP4 ADD GT ISZERO PUSH2 0x16F9 JUMPI PUSH2 0x16F8 PUSH2 0x1401 JUMP JUMPDEST JUMPDEST SWAP3 POP SWAP3 SWAP1 POP JUMP JUMPDEST PUSH0 PUSH0 PUSH0 PUSH1 0x40 DUP5 DUP7 SUB SLT ISZERO PUSH2 0x1717 JUMPI PUSH2 0x1716 PUSH2 0x13F1 JUMP JUMPDEST JUMPDEST PUSH0 PUSH2 0x1724 DUP7 DUP3 DUP8 ADD PUSH2 0x1697 JUMP JUMPDEST SWAP4 POP POP PUSH1 0x20 DUP5 ADD CALLDATALOAD PUSH8 0xFFFFFFFFFFFFFFFF DUP2 GT ISZERO PUSH2 0x1745 JUMPI PUSH2 0x1744 PUSH2 0x13F5 JUMP JUMPDEST JUMPDEST PUSH2 0x1751 DUP7 DUP3 DUP8 ADD PUSH2 0x16AB JUMP JUMPDEST SWAP3 POP SWAP3 POP POP SWAP3 POP SWAP3 POP SWAP3 JUMP JUMPDEST PUSH0 PUSH32 0xFFFFFFFF00000000000000000000000000000000000000000000000000000000 DUP3 AND SWAP1 POP SWAP2 SWAP1 POP JUMP JUMPDEST PUSH2 0x1791 DUP2 PUSH2 0x175D JUMP JUMPDEST DUP3 MSTORE POP POP JUMP JUMPDEST PUSH0 PUSH1 0x20 DUP3 ADD SWAP1 POP PUSH2 0x17AA PUSH0 DUP4 ADD DUP5 PUSH2 0x1788 JUMP JUMPDEST SWAP3 SWAP2 POP POP JUMP JUMPDEST PUSH0 PUSH20 0xFFFFFFFFFFFFFFFFFFFFFFFFFFFFFFFFFFFFFFFF DUP3 AND SWAP1 POP SWAP2 SWAP1 POP JUMP JUMPDEST PUSH0 PUSH2 0x17D9 DUP3 PUSH2 0x17B0 JUMP JUMPDEST SWAP1 POP SWAP2 SWAP1 POP JUMP JUMPDEST PUSH2 0x17E9 DUP2 PUSH2 0x17CF JUMP JUMPDEST DUP3 MSTORE POP POP JUMP JUMPDEST PUSH0 PUSH1 0x20 DUP3 ADD SWAP1 POP PUSH2 0x1802 PUSH0 DUP4 ADD DUP5 PUSH2 0x17E0 JUMP JUMPDEST SWAP3 SWAP2 POP POP JUMP JUMPDEST PUSH2 0x1811 DUP2 PUSH2 0x1678 JUMP JUMPDEST DUP3 MSTORE POP POP JUMP JUMPDEST PUSH0 PUSH1 0x20 DUP3 ADD SWAP1 POP PUSH2 0x182A PUSH0 DUP4 ADD DUP5 PUSH2 0x1808 JUMP JUMPDEST SWAP3 SWAP2 POP POP JUMP JUMPDEST PUSH0 DUP2 ISZERO ISZERO SWAP1 POP SWAP2 SWAP1 POP JUMP JUMPDEST PUSH2 0x1844 DUP2 PUSH2 0x1830 JUMP JUMPDEST DUP3 MSTORE POP POP JUMP JUMPDEST PUSH0 PUSH1 0x20 DUP3 ADD SWAP1 POP PUSH2 0x185D PUSH0 DUP4 ADD DUP5 PUSH2 0x183B JUMP JUMPDEST SWAP3 SWAP2 POP POP JUMP JUMPDEST PUSH0 DUP2 SWAP1 POP SWAP2 SWAP1 POP JUMP JUMPDEST PUSH2 0x1875 DUP2 PUSH2 0x1863 JUMP JUMPDEST DUP3 MSTORE POP POP JUMP JUMPDEST PUSH0 PUSH1 0x20 DUP3 ADD SWAP1 POP PUSH2 0x188E PUSH0 DUP4 ADD DUP5 PUSH2 0x186C JUMP JUMPDEST SWAP3 SWAP2 POP POP JUMP JUMPDEST PUSH2 0x189D DUP2 PUSH2 0x17CF JUMP JUMPDEST DUP2 EQ PUSH2 0x18A7 JUMPI PUSH0 PUSH0 REVERT JUMPDEST POP JUMP JUMPDEST PUSH0 DUP2 CALLDATALOAD SWAP1 POP PUSH2 0x18B8 DUP2 PUSH2 0x1894 JUMP JUMPDEST SWAP3 SWAP2 POP POP JUMP JUMPDEST PUSH2 0x18C7 DUP2 PUSH2 0x1863 JUMP JUMPDEST DUP2 EQ PUSH2 0x18D1 JUMPI PUSH0 PUSH0 REVERT JUMPDEST POP JUMP JUMPDEST PUSH0 DUP2 CALLDATALOAD SWAP1 POP PUSH2 0x18E2 DUP2 PUSH2 0x18BE JUMP JUMPDEST SWAP3 SWAP2 POP POP JUMP JUMPDEST PUSH0 PUSH0 REVERT JUMPDEST PUSH32 0x4E487B7100000000000000000000000000000000000000000000000000000000 PUSH0 MSTORE PUSH1 0x41 PUSH1 0x4 MSTORE PUSH1 0x24 PUSH0 REVERT JUMPDEST PUSH2 0x1922 DUP3 PUSH2 0x157E JUMP JUMPDEST DUP2 ADD DUP2 DUP2 LT PUSH8 0xFFFFFFFFFFFFFFFF DUP3 GT OR ISZERO PUSH2 0x1941 JUMPI PUSH2 0x1940 PUSH2 0x18EC JUMP JUMPDEST JUMPDEST DUP1 PUSH1 0x40 MSTORE POP POP POP JUMP JUMPDEST PUSH0 PUSH2 0x1953 PUSH2 0x13E8 JUMP JUMPDEST SWAP1 POP PUSH2 0x195F DUP3 DUP3 PUSH2 0x1919 JUMP JUMPDEST SWAP2 SWAP1 POP JUMP JUMPDEST PUSH0 PUSH8 0xFFFFFFFFFFFFFFFF DUP3 GT ISZERO PUSH2 0x197E JUMPI PUSH2 0x197D PUSH2 0x18EC JUMP JUMPDEST JUMPDEST PUSH2 0x1987 DUP3 PUSH2 0x157E JUMP JUMPDEST SWAP1 POP PUSH1 0x20 DUP2 ADD SWAP1 POP SWAP2 SWAP1 POP JUMP JUMPDEST DUP3 DUP2 DUP4 CALLDATACOPY PUSH0 DUP4 DUP4 ADD MSTORE POP POP POP JUMP JUMPDEST PUSH0 PUSH2 0x19B4 PUSH2 0x19AF DUP5 PUSH2 0x1964 JUMP JUMPDEST PUSH2 0x194A JUMP JUMPDEST SWAP1 POP DUP3 DUP2 MSTORE PUSH1 0x20 DUP2 ADD DUP5 DUP5 DUP5 ADD GT ISZERO PUSH2 0x19D0 JUMPI PUSH2 0x19CF PUSH2 0x18E8 JUMP JUMPDEST JUMPDEST PUSH2 0x19DB DUP5 DUP3 DUP6 PUSH2 0x1994 JUMP JUMPDEST POP SWAP4 SWAP3 POP POP POP JUMP JUMPDEST PUSH0 DUP3 PUSH1 0x1F DUP4 ADD SLT PUSH2 0x19F7 JUMPI PUSH2 0x19F6 PUSH2 0x13F9 JUMP JUMPDEST JUMPDEST DUP2 CALLDATALOAD PUSH2 0x1A07 DUP5 DUP3 PUSH1 0x20 DUP7 ADD PUSH2 0x19A2 JUMP JUMPDEST SWAP2 POP POP SWAP3 SWAP2 POP POP JUMP JUMPDEST PUSH0 PUSH0 PUSH0 PUSH1 0x60 DUP5 DUP7 SUB SLT ISZERO PUSH2 0x1A27 JUMPI PUSH2 0x1A26 PUSH2 0x13F1 JUMP JUMPDEST JUMPDEST PUSH0 PUSH2 0x1A34 DUP7 DUP3 DUP8 ADD PUSH2 0x18AA JUMP JUMPDEST SWAP4 POP POP PUSH1 0x20 PUSH2 0x1A45 DUP7 DUP3 DUP8 ADD PUSH2 0x18D4 JUMP JUMPDEST SWAP3 POP POP PUSH1 0x40 DUP5 ADD CALLDATALOAD PUSH8 0xFFFFFFFFFFFFFFFF DUP2 GT ISZERO PUSH2 0x1A66 JUMPI PUSH2 0x1A65 PUSH2 0x13F5 JUMP JUMPDEST JUMPDEST PUSH2 0x1A72 DUP7 DUP3 DUP8 ADD PUSH2 0x19E3 JUMP JUMPDEST SWAP2 POP POP SWAP3 POP SWAP3 POP SWAP3 JUMP JUMPDEST PUSH0 DUP3 DUP3 MSTORE PUSH1 0x20 DUP3 ADD SWAP1 POP SWAP3 SWAP2 POP POP JUMP JUMPDEST PUSH0 PUSH2 0x1A96 DUP3 PUSH2 0x1556 JUMP JUMPDEST PUSH2 0x1AA0 DUP2 DUP6 PUSH2 0x1A7C JUMP JUMPDEST SWAP4 POP PUSH2 0x1AB0 DUP2 DUP6 PUSH1 0x20 DUP7 ADD PUSH2 0x1570 JUMP JUMPDEST PUSH2 0x1AB9 DUP2 PUSH2 0x157E JUMP JUMPDEST DUP5 ADD SWAP2 POP POP SWAP3 SWAP2 POP POP JUMP JUMPDEST PUSH0 PUSH1 0x20 DUP3 ADD SWAP1 POP DUP2 DUP2 SUB PUSH0 DUP4 ADD MSTORE PUSH2 0x1ADC DUP2 DUP5 PUSH2 0x1A8C JUMP JUMPDEST SWAP1 POP SWAP3 SWAP2 POP POP JUMP JUMPDEST PUSH0 PUSH8 0xFFFFFFFFFFFFFFFF DUP3 GT ISZERO PUSH2 0x1AFE JUMPI PUSH2 0x1AFD PUSH2 0x18EC JUMP JUMPDEST JUMPDEST PUSH1 0x20 DUP3 MUL SWAP1 POP PUSH1 0x20 DUP2 ADD SWAP1 POP SWAP2 SWAP1 POP JUMP JUMPDEST PUSH0 PUSH2 0x1B21 PUSH2 0x1B1C DUP5 PUSH2 0x1AE4 JUMP JUMPDEST PUSH2 0x194A JUMP JUMPDEST SWAP1 POP DUP1 DUP4 DUP3 MSTORE PUSH1 0x20 DUP3 ADD SWAP1 POP PUSH1 0x20 DUP5 MUL DUP4 ADD DUP6 DUP2 GT ISZERO PUSH2 0x1B44 JUMPI PUSH2 0x1B43 PUSH2 0x1401 JUMP JUMPDEST JUMPDEST DUP4 JUMPDEST DUP2 DUP2 LT ISZERO PUSH2 0x1B8B JUMPI DUP1 CALLDATALOAD PUSH8 0xFFFFFFFFFFFFFFFF DUP2 GT ISZERO PUSH2 0x1B69 JUMPI PUSH2 0x1B68 PUSH2 0x13F9 JUMP JUMPDEST JUMPDEST DUP1 DUP7 ADD PUSH2 0x1B76 DUP10 DUP3 PUSH2 0x19E3 JUMP JUMPDEST DUP6 MSTORE PUSH1 0x20 DUP6 ADD SWAP5 POP POP POP PUSH1 0x20 DUP2 ADD SWAP1 POP PUSH2 0x1B46 JUMP JUMPDEST POP POP POP SWAP4 SWAP3 POP POP POP JUMP JUMPDEST PUSH0 PUSH2 0x1BA1 CALLDATASIZE DUP5 DUP5 PUSH2 0x1B0F JUMP JUMPDEST SWAP1 POP SWAP3 SWAP2 POP POP JUMP JUMPDEST PUSH0 PUSH1 0x60 DUP3 ADD SWAP1 POP PUSH2 0x1BBC PUSH0 DUP4 ADD DUP7 PUSH2 0x1808 JUMP JUMPDEST PUSH2 0x1BC9 PUSH1 0x20 DUP4 ADD DUP6 PUSH2 0x186C JUMP JUMPDEST PUSH2 0x1BD6 PUSH1 0x40 DUP4 ADD DUP5 PUSH2 0x17E0 JUMP JUMPDEST SWAP5 SWAP4 POP POP POP POP JUMP JUMPDEST PUSH0 DUP2 SWAP1 POP SWAP3 SWAP2 POP POP JUMP JUMPDEST PUSH0 PUSH2 0x1BF2 DUP3 PUSH2 0x1556 JUMP JUMPDEST PUSH2 0x1BFC DUP2 DUP6 PUSH2 0x1BDE JUMP JUMPDEST SWAP4 POP PUSH2 0x1C0C DUP2 DUP6 PUSH1 0x20 DUP7 ADD PUSH2 0x1570 JUMP JUMPDEST DUP1 DUP5 ADD SWAP2 POP POP SWAP3 SWAP2 POP POP JUMP JUMPDEST PUSH0 PUSH2 0x1C23 DUP3 DUP5 PUSH2 0x1BE8 JUMP JUMPDEST SWAP2 POP DUP2 SWAP1 POP SWAP3 SWAP2 POP POP JUMP JUMPDEST PUSH32 0x4E487B7100000000000000000000000000000000000000000000000000000000 PUSH0 MSTORE PUSH1 0x32 PUSH1 0x4 MSTORE PUSH1 0x24 PUSH0 REVERT JUMPDEST PUSH32 0x4E487B7100000000000000000000000000000000000000000000000000000000 PUSH0 MSTORE PUSH1 0x11 PUSH1 0x4 MSTORE PUSH1 0x24 PUSH0 REVERT JUMPDEST PUSH0 PUSH2 0x1C92 DUP3 PUSH2 0x1863 JUMP JUMPDEST SWAP2 POP PUSH32 0xFFFFFFFFFFFFFFFFFFFFFFFFFFFFFFFFFFFFFFFFFFFFFFFFFFFFFFFFFFFFFFFF DUP3 SUB PUSH2 0x1CC4 JUMPI PUSH2 0x1CC3 PUSH2 0x1C5B JUMP JUMPDEST JUMPDEST PUSH1 0x1 DUP3 ADD SWAP1 POP SWAP2 SWAP1 POP JUMP JUMPDEST PUSH0 DUP3 DUP3 MSTORE PUSH1 0x20 DUP3 ADD SWAP1 POP SWAP3 SWAP2 POP POP JUMP JUMPDEST PUSH32 0x496E76616C69642063616C6C7479706500000000000000000000000000000000 PUSH0 DUP3 ADD MSTORE POP JUMP JUMPDEST PUSH0 PUSH2 0x1D13 PUSH1 0x10 DUP4 PUSH2 0x1CCF JUMP JUMPDEST SWAP2 POP PUSH2 0x1D1E DUP3 PUSH2 0x1CDF JUMP JUMPDEST PUSH1 0x20 DUP3 ADD SWAP1 POP SWAP2 SWAP1 POP JUMP JUMPDEST PUSH0 PUSH1 0x20 DUP3 ADD SWAP1 POP DUP2 DUP2 SUB PUSH0 DUP4 ADD MSTORE PUSH2 0x1D40 DUP2 PUSH2 0x1D07 JUMP JUMPDEST SWAP1 POP SWAP2 SWAP1 POP JUMP JUMPDEST PUSH0 DUP2 SWAP1 POP SWAP2 SWAP1 POP JUMP JUMPDEST PUSH0 DUP2 SWAP1 POP SWAP2 SWAP1 POP JUMP JUMPDEST PUSH0 PUSH2 0x1D73 PUSH2 0x1D6E PUSH2 0x1D69 DUP5 PUSH2 0x1D47 JUMP JUMPDEST PUSH2 0x1D50 JUMP JUMPDEST PUSH2 0x1863 JUMP JUMPDEST SWAP1 POP SWAP2 SWAP1 POP JUMP JUMPDEST PUSH2 0x1D83 DUP2 PUSH2 0x1D59 JUMP JUMPDEST DUP3 MSTORE POP POP JUMP JUMPDEST PUSH0 DUP2 MLOAD SWAP1 POP SWAP2 SWAP1 POP JUMP JUMPDEST PUSH0 PUSH2 0x1D9D DUP3 PUSH2 0x1D89 JUMP JUMPDEST PUSH2 0x1DA7 DUP2 DUP6 PUSH2 0x1CCF JUMP JUMPDEST SWAP4 POP PUSH2 0x1DB7 DUP2 DUP6 PUSH1 0x20 DUP7 ADD PUSH2 0x1570 JUMP JUMPDEST PUSH2 0x1DC0 DUP2 PUSH2 0x157E JUMP JUMPDEST DUP5 ADD SWAP2 POP POP SWAP3 SWAP2 POP POP JUMP JUMPDEST PUSH0 PUSH1 0x60 DUP3 ADD SWAP1 POP PUSH2 0x1DDE PUSH0 DUP4 ADD DUP7 PUSH2 0x1D7A JUMP JUMPDEST PUSH2 0x1DEB PUSH1 0x20 DUP4 ADD DUP6 PUSH2 0x17E0 JUMP JUMPDEST DUP2 DUP2 SUB PUSH1 0x40 DUP4 ADD MSTORE PUSH2 0x1DFD DUP2 DUP5 PUSH2 0x1D93 JUMP JUMPDEST SWAP1 POP SWAP5 SWAP4 POP POP POP POP JUMP JUMPDEST PUSH0 PUSH2 0x1E11 DUP3 PUSH2 0x1863 JUMP JUMPDEST SWAP2 POP PUSH2 0x1E1C DUP4 PUSH2 0x1863 JUMP JUMPDEST SWAP3 POP DUP3 DUP3 ADD SWAP1 POP DUP1 DUP3 GT ISZERO PUSH2 0x1E34 JUMPI PUSH2 0x1E33 PUSH2 0x1C5B JUMP JUMPDEST JUMPDEST SWAP3 SWAP2 POP POP JUMP JUMPDEST PUSH32 0x4E487B7100000000000000000000000000000000000000000000000000000000 PUSH0 MSTORE PUSH1 0x12 PUSH1 0x4 MSTORE PUSH1 0x24 PUSH0 REVERT JUMPDEST PUSH0 PUSH2 0x1E71 DUP3 PUSH2 0x1863 JUMP JUMPDEST SWAP2 POP PUSH2 0x1E7C DUP4 PUSH2 0x1863 JUMP JUMPDEST SWAP3 POP DUP3 PUSH2 0x1E8C JUMPI PUSH2 0x1E8B PUSH2 0x1E3A JUMP JUMPDEST JUMPDEST DUP3 DUP3 MOD SWAP1 POP SWAP3 SWAP2 POP POP JUMP JUMPDEST PUSH32 0x44796E616D6963207374617465207661726961626C6573206D75737420626520 PUSH0 DUP3 ADD MSTORE PUSH32 0x61206D756C7469706C65206F6620333220627974657300000000000000000000 PUSH1 0x20 DUP3 ADD MSTORE POP JUMP JUMPDEST PUSH0 PUSH2 0x1EF1 PUSH1 0x36 DUP4 PUSH2 0x1CCF JUMP JUMPDEST SWAP2 POP PUSH2 0x1EFC DUP3 PUSH2 0x1E97 JUMP JUMPDEST PUSH1 0x40 DUP3 ADD SWAP1 POP SWAP2 SWAP1 POP JUMP JUMPDEST PUSH0 PUSH1 0x20 DUP3 ADD SWAP1 POP DUP2 DUP2 SUB PUSH0 DUP4 ADD MSTORE PUSH2 0x1F1E DUP2 PUSH2 0x1EE5 JUMP JUMPDEST SWAP1 POP SWAP2 SWAP1 POP JUMP JUMPDEST PUSH32 0x537461746963207374617465207661726961626C6573206D7573742062652033 PUSH0 DUP3 ADD MSTORE PUSH32 0x3220627974657300000000000000000000000000000000000000000000000000 PUSH1 0x20 DUP3 ADD MSTORE POP JUMP JUMPDEST PUSH0 PUSH2 0x1F7F PUSH1 0x27 DUP4 PUSH2 0x1CCF JUMP JUMPDEST SWAP2 POP PUSH2 0x1F8A DUP3 PUSH2 0x1F25 JUMP JUMPDEST PUSH1 0x40 DUP3 ADD SWAP1 POP SWAP2 SWAP1 POP JUMP JUMPDEST PUSH0 PUSH1 0x20 DUP3 ADD SWAP1 POP DUP2 DUP2 SUB PUSH0 DUP4 ADD MSTORE PUSH2 0x1FAC DUP2 PUSH2 0x1F73 JUMP JUMPDEST SWAP1 POP SWAP2 SWAP1 POP JUMP JUMPDEST PUSH0 PUSH2 0x1FBD DUP3 PUSH2 0x1863 JUMP JUMPDEST SWAP2 POP PUSH2 0x1FC8 DUP4 PUSH2 0x1863 JUMP JUMPDEST SWAP3 POP DUP3 DUP3 SUB SWAP1 POP DUP2 DUP2 GT ISZERO PUSH2 0x1FE0 JUMPI PUSH2 0x1FDF PUSH2 0x1C5B JUMP JUMPDEST JUMPDEST SWAP3 SWAP2 POP POP JUMP JUMPDEST PUSH0 PUSH2 0x1FF8 PUSH2 0x1FF3 DUP5 PUSH2 0x1964 JUMP JUMPDEST PUSH2 0x194A JUMP JUMPDEST SWAP1 POP DUP3 DUP2 MSTORE PUSH1 0x20 DUP2 ADD DUP5 DUP5 DUP5 ADD GT ISZERO PUSH2 0x2014 JUMPI PUSH2 0x2013 PUSH2 0x18E8 JUMP JUMPDEST JUMPDEST PUSH2 0x201F DUP5 DUP3 DUP6 PUSH2 0x1570 JUMP JUMPDEST POP SWAP4 SWAP3 POP POP POP JUMP JUMPDEST PUSH0 DUP3 PUSH1 0x1F DUP4 ADD SLT PUSH2 0x203B JUMPI PUSH2 0x203A PUSH2 0x13F9 JUMP JUMPDEST JUMPDEST DUP2 MLOAD PUSH2 0x204B DUP5 DUP3 PUSH1 0x20 DUP7 ADD PUSH2 0x1FE6 JUMP JUMPDEST SWAP2 POP POP SWAP3 SWAP2 POP POP JUMP JUMPDEST PUSH0 PUSH2 0x2066 PUSH2 0x2061 DUP5 PUSH2 0x1AE4 JUMP JUMPDEST PUSH2 0x194A JUMP JUMPDEST SWAP1 POP DUP1 DUP4 DUP3 MSTORE PUSH1 0x20 DUP3 ADD SWAP1 POP PUSH1 0x20 DUP5 MUL DUP4 ADD DUP6 DUP2 GT ISZERO PUSH2 0x2089 JUMPI PUSH2 0x2088 PUSH2 0x1401 JUMP JUMPDEST JUMPDEST DUP4 JUMPDEST DUP2 DUP2 LT ISZERO PUSH2 0x20D0 JUMPI DUP1 MLOAD PUSH8 0xFFFFFFFFFFFFFFFF DUP2 GT ISZERO PUSH2 0x20AE JUMPI PUSH2 0x20AD PUSH2 0x13F9 JUMP JUMPDEST JUMPDEST DUP1 DUP7 ADD PUSH2 0x20BB DUP10 DUP3 PUSH2 0x2027 JUMP JUMPDEST DUP6 MSTORE PUSH1 0x20 DUP6 ADD SWAP5 POP POP POP PUSH1 0x20 DUP2 ADD SWAP1 POP PUSH2 0x208B JUMP JUMPDEST POP POP POP SWAP4 SWAP3 POP POP POP JUMP JUMPDEST PUSH0 DUP3 PUSH1 0x1F DUP4 ADD SLT PUSH2 0x20EE JUMPI PUSH2 0x20ED PUSH2 0x13F9 JUMP JUMPDEST JUMPDEST DUP2 MLOAD PUSH2 0x20FE DUP5 DUP3 PUSH1 0x20 DUP7 ADD PUSH2 0x2054 JUMP JUMPDEST SWAP2 POP POP SWAP3 SWAP2 POP POP JUMP JUMPDEST PUSH0 PUSH1 0x20 DUP3 DUP5 SUB SLT ISZERO PUSH2 0x211C JUMPI PUSH2 0x211B PUSH2 0x13F1 JUMP JUMPDEST JUMPDEST PUSH0 DUP3 ADD MLOAD PUSH8 0xFFFFFFFFFFFFFFFF DUP2 GT ISZERO PUSH2 0x2139 JUMPI PUSH2 0x2138 PUSH2 0x13F5 JUMP JUMPDEST JUMPDEST PUSH2 0x2145 DUP5 DUP3 DUP6 ADD PUSH2 0x20DA JUMP JUMPDEST SWAP2 POP POP SWAP3 SWAP2 POP POP JUMP JUMPDEST PUSH32 0x4F6E6C79206F6E652072657475726E2076616C7565207065726D697474656420 PUSH0 DUP3 ADD MSTORE PUSH32 0x287661726961626C652900000000000000000000000000000000000000000000 PUSH1 0x20 DUP3 ADD MSTORE POP JUMP JUMPDEST PUSH0 PUSH2 0x21A8 PUSH1 0x2A DUP4 PUSH2 0x1CCF JUMP JUMPDEST SWAP2 POP PUSH2 0x21B3 DUP3 PUSH2 0x214E JUMP JUMPDEST PUSH1 0x40 DUP3 ADD SWAP1 POP SWAP2 SWAP1 POP JUMP JUMPDEST PUSH0 PUSH1 0x20 DUP3 ADD SWAP1 POP DUP2 DUP2 SUB PUSH0 DUP4 ADD MSTORE PUSH2 0x21D5 DUP2 PUSH2 0x219C JUMP JUMPDEST SWAP1 POP SWAP2 SWAP1 POP JUMP JUMPDEST PUSH32 0x4F6E6C79206F6E652072657475726E2076616C7565207065726D697474656420 PUSH0 DUP3 ADD MSTORE PUSH32 0x2873746174696329000000000000000000000000000000000000000000000000 PUSH1 0x20 DUP3 ADD MSTORE POP JUMP JUMPDEST PUSH0 PUSH2 0x2236 PUSH1 0x28 DUP4 PUSH2 0x1CCF JUMP JUMPDEST SWAP2 POP PUSH2 0x2241 DUP3 PUSH2 0x21DC JUMP JUMPDEST PUSH1 0x40 DUP3 ADD SWAP1 POP SWAP2 SWAP1 POP JUMP JUMPDEST PUSH0 PUSH1 0x20 DUP3 ADD SWAP1 POP DUP2 DUP2 SUB PUSH0 DUP4 ADD MSTORE PUSH2 0x2263 DUP2 PUSH2 0x222A JUMP JUMPDEST SWAP1 POP SWAP2 SWAP1 POP JUMP INVALID LOG2 PUSH5 0x6970667358 0x22 SLT KECCAK256 PUSH9 0x42992D9E2490826C3C TSTORE CREATE SWAP14 0xA5 PUSH14 0xD9B33997BD8747FB4CEFBFF9BCE0 SWAP6 SWAP7 0xBF PUSH5 0x736F6C6343 STOP ADDMOD SHR STOP CALLER "},"methodIdentifiers":{"amount()":"aa8c217c","execute(address,uint256,bytes)":"b61d27f6","executeWeiroll(bytes32[],bytes[])":"0e4ab719","executed()":"31a38c89","forfeit()":"f3d86e4a","forfeited()":"67a34844","isForfeitable()":"6d710c72","isValidSignature(bytes32,bytes)":"1626ba7e","lockedUntil()":"ce0617ec","manualExecuteWeiroll(bytes32[],bytes[])":"24b8b1e6","marketHash()":"31574546","owner()":"8da5cb5b","recipeMarketHub()":"2e1cc2f6"}},"storageLayout":{"storage":[{"astId":1347,"contract":"contracts/WeirollWallet.sol:WeirollWallet","label":"executed","offset":0,"slot":"0","type":"t_bool"},{"astId":1350,"contract":"contracts/WeirollWallet.sol:WeirollWallet","label":"forfeited","offset":1,"slot":"0","type":"t_bool"}],"types":{"t_bool":{"encoding":"inplace","label":"bool","numberOfBytes":"1"}}}}}}