{
  "_format": "hh-sol-artifact-1",
  "contractName": "SaleCampaign",
  "sourceName": "contracts/SaleCampaign.sol",
  "abi": [
    {
      "inputs": [
        {
          "internalType": "address",
          "name": "_token",
          "type": "address"
        },
        {
          "internalType": "uint256",
          "name": "_totalSupply",
          "type": "uint256"
        }
      ],
      "stateMutability": "nonpayable",
      "type": "constructor"
    },
    {
      "inputs": [
        {
          "internalType": "uint256",
          "name": "amount",
          "type": "uint256"
        }
      ],
      "name": "buyTokens",
      "outputs": [],
      "stateMutability": "payable",
      "type": "function"
    },
    {
      "inputs": [],
      "name": "getTokenPrice",
      "outputs": [
        {
          "internalType": "uint256",
          "name": "",
          "type": "uint256"
        }
      ],
      "stateMutability": "view",
      "type": "function"
    },
    {
      "inputs": [],
      "name": "maxSaleAmount",
      "outputs": [
        {
          "internalType": "uint256",
          "name": "",
          "type": "uint256"
        }
      ],
      "stateMutability": "view",
      "type": "function"
    },
    {
      "inputs": [],
      "name": "owner",
      "outputs": [
        {
          "internalType": "address",
          "name": "",
          "type": "address"
        }
      ],
      "stateMutability": "view",
      "type": "function"
    },
    {
      "inputs": [],
      "name": "saleStartTime",
      "outputs": [
        {
          "internalType": "uint256",
          "name": "",
          "type": "uint256"
        }
      ],
      "stateMutability": "view",
      "type": "function"
    },
    {
      "inputs": [],
      "name": "token",
      "outputs": [
        {
          "internalType": "contract IGroup1",
          "name": "",
          "type": "address"
        }
      ],
      "stateMutability": "view",
      "type": "function"
    },
    {
      "inputs": [],
      "name": "totalSold",
      "outputs": [
        {
          "internalType": "uint256",
          "name": "",
          "type": "uint256"
        }
      ],
      "stateMutability": "view",
      "type": "function"
    },
    {
      "inputs": [],
      "name": "totalSupply",
      "outputs": [
        {
          "internalType": "uint256",
          "name": "",
          "type": "uint256"
        }
      ],
      "stateMutability": "view",
      "type": "function"
    }
  ],
  "bytecode": "0x60806040523480156200001157600080fd5b5060405162000b0e38038062000b0e833981810160405281019062000037919062000188565b336000806101000a81548173ffffffffffffffffffffffffffffffffffffffff021916908373ffffffffffffffffffffffffffffffffffffffff16021790555081600160006101000a81548173ffffffffffffffffffffffffffffffffffffffff021916908373ffffffffffffffffffffffffffffffffffffffff1602179055504260028190555080600581905550600281620000d59190620001fe565b600481905550505062000236565b600080fd5b600073ffffffffffffffffffffffffffffffffffffffff82169050919050565b60006200011582620000e8565b9050919050565b620001278162000108565b81146200013357600080fd5b50565b60008151905062000147816200011c565b92915050565b6000819050919050565b62000162816200014d565b81146200016e57600080fd5b50565b600081519050620001828162000157565b92915050565b60008060408385031215620001a257620001a1620000e3565b5b6000620001b28582860162000136565b9250506020620001c58582860162000171565b9150509250929050565b7f4e487b7100000000000000000000000000000000000000000000000000000000600052601260045260246000fd5b60006200020b826200014d565b915062000218836200014d565b9250826200022b576200022a620001cf565b5b828204905092915050565b6108c880620002466000396000f3fe60806040526004361061007b5760003560e01c80634b94f50e1161004e5780634b94f50e1461011d5780638da5cb5b146101485780639106d7ba14610173578063fc0c546a1461019e5761007b565b806318160ddd1461008057806319a2ca44146100ab5780631cbaee2d146100d65780633610724e14610101575b600080fd5b34801561008c57600080fd5b506100956101c9565b6040516100a2919061044d565b60405180910390f35b3480156100b757600080fd5b506100c06101cf565b6040516100cd919061044d565b60405180910390f35b3480156100e257600080fd5b506100eb6101d5565b6040516100f8919061044d565b60405180910390f35b61011b60048036038101906101169190610499565b6101db565b005b34801561012957600080fd5b506101326103b9565b60405161013f919061044d565b60405180910390f35b34801561015457600080fd5b5061015d6103e4565b60405161016a9190610507565b60405180910390f35b34801561017f57600080fd5b50610188610408565b604051610195919061044d565b60405180910390f35b3480156101aa57600080fd5b506101b361040e565b6040516101c09190610581565b60405180910390f35b60055481565b60045481565b60025481565b62278d006002546101ec91906105cb565b42111561022e576040517f08c379a00000000000000000000000000000000000000000000000000000000081526004016102259061065c565b60405180910390fd5b6004546003548261023f91906105cb565b1115610280576040517f08c379a0000000000000000000000000000000000000000000000000000000008152600401610277906106c8565b60405180910390fd5b600061028a6103b9565b9050818161029891906106e8565b34146102d9576040517f08c379a00000000000000000000000000000000000000000000000000000000081526004016102d090610776565b60405180910390fd5b81600360008282546102eb91906105cb565b92505081905550600160009054906101000a900473ffffffffffffffffffffffffffffffffffffffff1673ffffffffffffffffffffffffffffffffffffffff166323b872dd60008054906101000a900473ffffffffffffffffffffffffffffffffffffffff1633856040518463ffffffff1660e01b815260040161037193929190610796565b6020604051808303816000875af1158015610390573d6000803e3d6000fd5b505050506040513d601f19601f820116820180604052508101906103b49190610805565b505050565b600060026004546103ca9190610861565b60035410156103dc57600590506103e1565b600a90505b90565b60008054906101000a900473ffffffffffffffffffffffffffffffffffffffff1681565b60035481565b600160009054906101000a900473ffffffffffffffffffffffffffffffffffffffff1681565b6000819050919050565b61044781610434565b82525050565b6000602082019050610462600083018461043e565b92915050565b600080fd5b61047681610434565b811461048157600080fd5b50565b6000813590506104938161046d565b92915050565b6000602082840312156104af576104ae610468565b5b60006104bd84828501610484565b91505092915050565b600073ffffffffffffffffffffffffffffffffffffffff82169050919050565b60006104f1826104c6565b9050919050565b610501816104e6565b82525050565b600060208201905061051c60008301846104f8565b92915050565b6000819050919050565b600061054761054261053d846104c6565b610522565b6104c6565b9050919050565b60006105598261052c565b9050919050565b600061056b8261054e565b9050919050565b61057b81610560565b82525050565b60006020820190506105966000830184610572565b92915050565b7f4e487b7100000000000000000000000000000000000000000000000000000000600052601160045260246000fd5b60006105d682610434565b91506105e183610434565b92508282019050808211156105f9576105f861059c565b5b92915050565b600082825260208201905092915050565b7f53616c6520656e64656400000000000000000000000000000000000000000000600082015250565b6000610646600a836105ff565b915061065182610610565b602082019050919050565b6000602082019050818103600083015261067581610639565b9050919050565b7f4f766572206d617853616c65416d6f756e740000000000000000000000000000600082015250565b60006106b26012836105ff565b91506106bd8261067c565b602082019050919050565b600060208201905081810360008301526106e1816106a5565b9050919050565b60006106f382610434565b91506106fe83610434565b925082820261070c81610434565b915082820484148315176107235761072261059c565b5b5092915050565b7f496e636f7272656374204554482073656e740000000000000000000000000000600082015250565b60006107606012836105ff565b915061076b8261072a565b602082019050919050565b6000602082019050818103600083015261078f81610753565b9050919050565b60006060820190506107ab60008301866104f8565b6107b860208301856104f8565b6107c5604083018461043e565b949350505050565b60008115159050919050565b6107e2816107cd565b81146107ed57600080fd5b50565b6000815190506107ff816107d9565b92915050565b60006020828403121561081b5761081a610468565b5b6000610829848285016107f0565b91505092915050565b7f4e487b7100000000000000000000000000000000000000000000000000000000600052601260045260246000fd5b600061086c82610434565b915061087783610434565b92508261088757610886610832565b5b82820490509291505056fea264697066735822122075b6a75161163a2057d83cb22b4f257013ef598d27ae13376e2195576503258064736f6c63430008140033",
  "linkReferences": {},
  "deployedLinkReferences": {}
}