{
  "_format": "hh-sol-artifact-1",
  "contractName": "RouterEventEmitter",
  "sourceName": "contracts/test/RouterEventEmitter.sol",
  "abi": [
    {
      "anonymous": false,
      "inputs": [
        {
          "indexed": false,
          "internalType": "uint256[]",
          "name": "amounts",
          "type": "uint256[]"
        }
      ],
      "name": "Amounts",
      "type": "event"
    },
    {
      "inputs": [
        {
          "internalType": "address",
          "name": "router",
          "type": "address"
        },
        {
          "internalType": "uint256",
          "name": "amountOutMin",
          "type": "uint256"
        },
        {
          "internalType": "address[]",
          "name": "path",
          "type": "address[]"
        },
        {
          "internalType": "address",
          "name": "to",
          "type": "address"
        },
        {
          "internalType": "uint256",
          "name": "deadline",
          "type": "uint256"
        }
      ],
      "name": "swapExactETHForTokens",
      "outputs": [],
      "stateMutability": "payable",
      "type": "function"
    },
    {
      "inputs": [
        {
          "internalType": "address",
          "name": "router",
          "type": "address"
        },
        {
          "internalType": "uint256",
          "name": "amountIn",
          "type": "uint256"
        },
        {
          "internalType": "uint256",
          "name": "amountOutMin",
          "type": "uint256"
        },
        {
          "internalType": "address[]",
          "name": "path",
          "type": "address[]"
        },
        {
          "internalType": "address",
          "name": "to",
          "type": "address"
        },
        {
          "internalType": "uint256",
          "name": "deadline",
          "type": "uint256"
        }
      ],
      "name": "swapExactTokensForETH",
      "outputs": [],
      "stateMutability": "nonpayable",
      "type": "function"
    },
    {
      "inputs": [
        {
          "internalType": "address",
          "name": "router",
          "type": "address"
        },
        {
          "internalType": "uint256",
          "name": "amountIn",
          "type": "uint256"
        },
        {
          "internalType": "uint256",
          "name": "amountOutMin",
          "type": "uint256"
        },
        {
          "internalType": "address[]",
          "name": "path",
          "type": "address[]"
        },
        {
          "internalType": "address",
          "name": "to",
          "type": "address"
        },
        {
          "internalType": "uint256",
          "name": "deadline",
          "type": "uint256"
        }
      ],
      "name": "swapExactTokensForTokens",
      "outputs": [],
      "stateMutability": "nonpayable",
      "type": "function"
    },
    {
      "stateMutability": "payable",
      "type": "receive"
    }
  ],
  "bytecode": "0x608060405234801561001057600080fd5b50610c63806100206000396000f3fe6080604052600436106100385760003560e01c8063375734d9146100445780639c91fcb514610128578063fde1adda1461020c5761003f565b3661003f57005b600080fd5b34801561005057600080fd5b50610126600480360360c081101561006757600080fd5b81019080803573ffffffffffffffffffffffffffffffffffffffff1690602001909291908035906020019092919080359060200190929190803590602001906401000000008111156100b857600080fd5b8201836020820111156100ca57600080fd5b803590602001918460208302840111640100000000831117156100ec57600080fd5b9091929391929390803573ffffffffffffffffffffffffffffffffffffffff169060200190929190803590602001909291905050506102d9565b005b34801561013457600080fd5b5061020a600480360360c081101561014b57600080fd5b81019080803573ffffffffffffffffffffffffffffffffffffffff16906020019092919080359060200190929190803590602001909291908035906020019064010000000081111561019c57600080fd5b8201836020820111156101ae57600080fd5b803590602001918460208302840111640100000000831117156101d057600080fd5b9091929391929390803573ffffffffffffffffffffffffffffffffffffffff169060200190929190803590602001909291905050506105f8565b005b6102d7600480360360a081101561022257600080fd5b81019080803573ffffffffffffffffffffffffffffffffffffffff169060200190929190803590602001909291908035906020019064010000000081111561026957600080fd5b82018360208201111561027b57600080fd5b8035906020019184602083028401116401000000008311171561029d57600080fd5b9091929391929390803573ffffffffffffffffffffffffffffffffffffffff16906020019092919080359060200190929190505050610917565b005b600060608873ffffffffffffffffffffffffffffffffffffffff1663ac3893ba60e01b89898989896000808b60405160240180898152602001888152602001806020018673ffffffffffffffffffffffffffffffffffffffff1673ffffffffffffffffffffffffffffffffffffffff1681526020018573ffffffffffffffffffffffffffffffffffffffff1673ffffffffffffffffffffffffffffffffffffffff168152602001841515151581526020018381526020018281038252888882818152602001925060200280828437600081840152601f19601f8201169050808301925050509950505050505050505050604051602081830303815290604052907bffffffffffffffffffffffffffffffffffffffffffffffffffffffff19166020820180517bffffffffffffffffffffffffffffffffffffffffffffffffffffffff83818316178352505050506040518082805190602001908083835b602083106104595780518252602082019150602081019050602083039250610436565b6001836020036101000a038019825116818451168082178552505050505050905001915050600060405180830381855af49150503d80600081146104b9576040519150601f19603f3d011682016040523d82523d6000602084013e6104be565b606091505b5091509150816104ca57fe5b7f4cc17991e3610e3400e74a8306aa421daaee1e3446fa22b490604610999e10b381806020019051602081101561050057600080fd5b810190808051604051939291908464010000000082111561052057600080fd5b8382019150602082018581111561053657600080fd5b825186602082028301116401000000008211171561055357600080fd5b8083526020830192505050908051906020019060200280838360005b8381101561058a57808201518184015260208101905061056f565b505050509050016040525050506040518080602001828103825283818151815260200191508051906020019060200280838360005b838110156105da5780820151818401526020810190506105bf565b505050509050019250505060405180910390a1505050505050505050565b600060608873ffffffffffffffffffffffffffffffffffffffff166352aa4c2260e01b89898989896000808b60405160240180898152602001888152602001806020018673ffffffffffffffffffffffffffffffffffffffff1673ffffffffffffffffffffffffffffffffffffffff1681526020018573ffffffffffffffffffffffffffffffffffffffff1673ffffffffffffffffffffffffffffffffffffffff168152602001841515151581526020018381526020018281038252888882818152602001925060200280828437600081840152601f19601f8201169050808301925050509950505050505050505050604051602081830303815290604052907bffffffffffffffffffffffffffffffffffffffffffffffffffffffff19166020820180517bffffffffffffffffffffffffffffffffffffffffffffffffffffffff83818316178352505050506040518082805190602001908083835b602083106107785780518252602082019150602081019050602083039250610755565b6001836020036101000a038019825116818451168082178552505050505050905001915050600060405180830381855af49150503d80600081146107d8576040519150601f19603f3d011682016040523d82523d6000602084013e6107dd565b606091505b5091509150816107e957fe5b7f4cc17991e3610e3400e74a8306aa421daaee1e3446fa22b490604610999e10b381806020019051602081101561081f57600080fd5b810190808051604051939291908464010000000082111561083f57600080fd5b8382019150602082018581111561085557600080fd5b825186602082028301116401000000008211171561087257600080fd5b8083526020830192505050908051906020019060200280838360005b838110156108a957808201518184015260208101905061088e565b505050509050016040525050506040518080602001828103825283818151815260200191508051906020019060200280838360005b838110156108f95780820151818401526020810190506108de565b505050509050019250505060405180910390a1505050505050505050565b600060608773ffffffffffffffffffffffffffffffffffffffff1663b4822be360e01b888888886000808a60405160240180888152602001806020018673ffffffffffffffffffffffffffffffffffffffff1673ffffffffffffffffffffffffffffffffffffffff1681526020018573ffffffffffffffffffffffffffffffffffffffff1673ffffffffffffffffffffffffffffffffffffffff168152602001841515151581526020018381526020018281038252888882818152602001925060200280828437600081840152601f19601f82011690508083019250505098505050505050505050604051602081830303815290604052907bffffffffffffffffffffffffffffffffffffffffffffffffffffffff19166020820180517bffffffffffffffffffffffffffffffffffffffffffffffffffffffff83818316178352505050506040518082805190602001908083835b60208310610a8f5780518252602082019150602081019050602083039250610a6c565b6001836020036101000a038019825116818451168082178552505050505050905001915050600060405180830381855af49150503d8060008114610aef576040519150601f19603f3d011682016040523d82523d6000602084013e610af4565b606091505b509150915081610b0057fe5b7f4cc17991e3610e3400e74a8306aa421daaee1e3446fa22b490604610999e10b3818060200190516020811015610b3657600080fd5b8101908080516040519392919084640100000000821115610b5657600080fd5b83820191506020820185811115610b6c57600080fd5b8251866020820283011164010000000082111715610b8957600080fd5b8083526020830192505050908051906020019060200280838360005b83811015610bc0578082015181840152602081019050610ba5565b505050509050016040525050506040518080602001828103825283818151815260200191508051906020019060200280838360005b83811015610c10578082015181840152602081019050610bf5565b505050509050019250505060405180910390a1505050505050505056fea2646970667358221220e8f8eb9c067750e680de79e205a77be876014a2b9ad2d4d7db12168b5c34f16d64736f6c63430006060033",
  "linkReferences": {},
  "deployedLinkReferences": {}
}